:020000040800F2
:10000000D8090020790200082B5A00080154000882
:10001000295A00086F040008FD680008000000006D
:100020000000000000000000000000002F5A00083F
:1000300071040008000000002D5A0008315A000821
:10004000930200089302000893020008930200083C
:10005000930200089302000893020008930200082C
:10006000930200089302000893020008930200081C
:10007000930200089302000893020008930200080C
:1000800093020008930200089302000893020008FC
:1000900093020008930200089302000893020008EC
:1000A00093020008930200089302000893020008DC
:1000B00093020008930200089302000893020008CC
:1000C00093020008930200089302000893020008BC
:1000D00093020008930200089302000893020008AC
:1000E000930200089302000893020008930200089C
:1000F000930200089302000893020008930200088C
:10010000930200089302000893020008930200087B
:10011000930200089302000893020008930200086B
:10012000930200089302000893020008930200085B
:10013000930200089302000893020008930200084B
:10014000930200089302000893020008930200083B
:10015000930200089302000893020008930200082B
:10016000930200089302000893020008930200081B
:10017000930200089302000893020008930200080B
:1001800093020008930200089302000893020008FB
:100190009302000800000000930200089302000888
:1001A00093020008930200089302000893020008DB
:1001B00093020008930200089302000893020008CB
:1001C00093020008930200089302000893020008BB
:1001D000930200089302000800F002F800F03CF8D7
:1001E0000AA090E8000C82448344AAF10107DA4592
:1001F00001D100F031F8AFF2090EBAE80F0013F0A8
:10020000010F18BFFB1A43F001031847B86700003D
:10021000D8670000103A24BF78C878C1FAD85207CE
:1002200024BF30C830C144BF04680C607047000070
:100230000023002400250026103A28BF78C1FBD8EF
:10024000520728BF30C148BF0B6070471FB506F08A
:1002500093FB1FBD10B510BD00F0CFF81146FFF79E
:10026000F5FF06F05DFB00F0EDF803B4FFF7F2FFD9
:1002700003BC00F0F5F80000094880470948004732
:10028000FEE7FEE7FEE7FEE7FEE7FEE7FEE7FEE746
:10029000FEE7FEE704480549054A064B70470000A3
:1002A000A15A0008D9010008D8030020D80900206D
:1002B000D8050020D805002053EA020C00F0698020
:1002C0002DE9F04B4FF00006002B1FBFB3FA83F56A
:1002D00003FA05F424FA05F65E4012BF1643B2FA9B
:1002E00082F502FA05F4C5F120051EBF22FA05FCCD
:1002F00044EA0C04203556EA044C4FEA144418BF73
:10030000641C4FF000084FF00009904271EB030CA1
:1003100039D3002919BFB1FA81F701FA07F6B0FA0B
:1003200080F700FA07F6C7F120071EBF20FA07FC86
:1003300046EA0C062037B6FBF4FCA7EB0507103F96
:1003400007F01F0BCBF120060CFA0BFB2CFA06F67C
:1003500044BFB3460026202FA4BF5E464FF0000BDB
:100360005BEA060C08BF4FF0010B19EB0B09ABFB66
:10037000027C48EB0608C01B06FB02CC0BFB03CC3F
:1003800071EB0C01C1E70B46024641464846BDE809
:10039000F08B13B54FF000004FF00001AFF3008079
:1003A000BDE81C4070474FF0000200B5134694466C
:1003B0009646203922BFA0E80C50A0E80C50B1F1BD
:1003C0002001BFF4F7AF090728BFA0E80C5048BFD1
:1003D0000CC05DF804EB890028BF40F8042B08BF6F
:1003E000704748BF20F8022B11F0804F18BF00F86B
:1003F000012B7047704770477047754600F02CF826
:10040000AE4605006946534620F00700854618B001
:1004100020B5FFF73FFFBDE820404FF000064FF04A
:1004200000074FF000084FF0000B21F00701AC4629
:10043000ACE8C009ACE8C009ACE8C009ACE8C00948
:100440008D46704710B50446AFF300802046BDE8E6
:100450001040FFF70ABF00000048704774030020F7
:1004600001491820ABBEFEE7260002007047FEE7F8
:10047000704772B6FEE700002DE9F04F04460068B1
:100480004FF0A0477A4E9BB00D464FF0000BB8429C
:1004900006D0B04204D040F64C0176A006F03FFAF8
:1004A000286800284AD0012813D0022811D0032838
:1004B0000FD005280DD006280BD0072809D0092811
:1004C00007D040F64D016BA006F029FA28680028F5
:1004D00034D0686850B1B0F5004F07D0B0F5404F48
:1004E00004D04FF4056163A006F019FAA86828B398
:1004F000B0F5807F22D0B0F5007F1FD0B0F5407FEF
:100500001CD0B0F5806F19D0B0F5A06F16D0B0F543
:10051000C06F13D0B0F5E06F10D0B0F5006F0DD004
:10052000B0F5106F0AD0B0F5206F07D0B0F5306F7E
:1005300004D040F651014FA006F0F1F994F85800AC
:10054000012812D0012084F858004FF00009CDF89E
:100550005C90CDF86090B8462068DFF854A1554F04
:10056000404506D13846009708E002201BB0BDE8A0
:10057000F08FB04216D15046CDF800A004F04FFFE6
:100580000090206804F04BFF01460098014311D011
:10059000E06D40F02000E0654FF0010B84F85890CA
:1005A0005846E3E7E16D41F02001E16584F8589099
:1005B0000120DBE720684146884201D0B84201D1E2
:1005C0003D4800E03D48D5F800C03D4B40F61F7265
:1005D000BCF1000F2CD0D0F808C094F838802CF46F
:1005E000604C4CEA483CD5F804804CEA080CC0F852
:1005F00008C0D4F800C08C4501D0BC4504D189683E
:10060000BB6801F0010108E0B168DAF8086001F0A8
:10061000010106F001069B68314303F00103194311
:10062000BCD1AB68296819438368934319431CE024
:10063000856825F46045856025688D4201D0BD42FE
:1006400004D18968BB6801F0010108E0B168DAF8FB
:10065000085001F0010105F001059B68294303F0F2
:10066000010319439AD181689143816096E70000A4
:10067000000400502E2E2F447269766572732F533A
:10068000544D3332473478785F48414C5F44726947
:100690007665722F5372632F73746D3332673478BB
:1006A000785F68616C5F6164635F65782E630000EA
:1006B00000050050000100500003005000070050EA
:1006C000000600502DE9F04F85B00446002003904D
:1006D00000902068DFF8F8A3DFF8F8B3FE4E0D466F
:1006E000B0F1A04F0DD0B0420BD0FC49884208D0E9
:1006F000504506D0584504D040F6D221F8A006F067
:100700000EF9686806282DD00C282BD0122829D085
:10071000182827D0B0F5807F24D0B0F5837F21D072
:10072000B0F5867F1ED0B0F5897F1BD0B0F58C7FE9
:1007300018D0B0F5007F15D0A0F50071063911D0A2
:10074000B0F5037F0ED00C390CD0B0F5067F09D080
:10075000B0F5407F06D0F43904D040F6D321E0A0B4
:1007600006F0DDF8A868A8B1B0F1004F12D001285A
:1007700010D002280ED003280CD004280AD0052857
:1007800008D0062806D0072804D040F6D421D4A0EB
:1007900006F0C5F8E868E04F7F2806D0B84204D0DC
:1007A00040F6D521CEA006F0BAF8286904280BD06F
:1007B00050B1012808D0022806D0032804D040F602
:1007C000D621C7A006F0ABF82068C06800F018007A
:1007D000810840F6FF70C8406969884204D240F63B
:1007E000D721BFA006F09BF82869042808D094F808
:1007F0004000012804D140F6DB21B9A006F08FF8B3
:10080000DFF81483E868DFF814C34045DFF810E32D
:10081000DFF81093C44FC549C54A28684FEA4C0316
:1008200079D0012878D0604576D0984274D0704550
:1008300072D0C04B98426FD0BF4B98426CD0BF4B28
:10084000984269D0BE4B984266D0BE4B984263D066
:10085000BD4B984260D0BD4B98425DD0BC4B984296
:100860005AD02368B3F1A04F57D0B34217D1884272
:1008700052D0904250D0DFF8DCC260454CD0DFF857
:10088000D8C2604548D0DFF8D4C2604544D0DFF814
:10089000D0C2604540D0DFF8CCC260453CD0DFF824
:1008A0003C82DFF8C4C2434511D1884234D0904223
:1008B00032D0DFF8A08240452ED0DFF8B08240452C
:1008C0002AD0604528D0484526D0B84224D0534588
:1008D00010D1884220D090421ED09E4988421BD021
:1008E0009D49884218D0604516D0A149884213D04E
:1008F000B84211D05B4521D19E4988420CD09E4917
:10090000884209D09D49884206D09349884203D045
:10091000604501D00EE014E07EE088427CD0904239
:100920007AD08C49884277D09549884274D09549CD
:10093000884271D048456FD0B8426DD04FF42E61D7
:1009400067E0604568D0704566D0DFF8E8C1604573
:1009500062D0DFF8E4C160455ED0DFF8E0C16045F9
:100960005AD0DFF8DCC1604556D0DFF8D8C1604509
:1009700052D0DFF8D8C160454ED0D4F800C0BCF1E9
:10098000A04F62D0B44511D1984245D0884243D09F
:10099000904241D0DFF8BC8140453DD0DFF8A881CE
:1009A000404539D0DFF8B081404535D0DFF82C81A3
:1009B000C4450DD198422FD088422DD090422BD0E3
:1009C000DFF89081404527D0DFF88481404523D06F
:1009D000D44511D198421FD088421DD090421BD0DF
:1009E0005C49884218D05849884215D05A498842F3
:1009F00012D0574988420FD0DC4508D1524988426D
:100A00000AD05549884207D05149884204D040F65F
:100A1000E42133A005F083FF94F8580001281CD08E
:100A20004FF0010884F85880206804F0F4FCB0B15D
:100A3000E06D40F02000E06501200390002084F884
:100A40005800039805B0BDE8F08F9842E4D0884282
:100A5000E2D09042E0D03F49D7E70220F2E7D5E963
:100A600000210C23206803EA91131844036B01F062
:100A70001F014FF01F0C0CFA01FCC2F3846223EA41
:100A80000C038A4013430363206804F0C4FC009005
:100A9000206804F0BCFC01460098084317D1AA68FE
:100AA00029682068B2F1004F6ED004F0BCFC2068C9
:100AB000416921F00041416120686969C268C2F35F
:100AC000C102520091402A69042A7DD05DE019E1FB
:100AD00000050050000600500001005000040050C6
:100AE0002E2E2F447269766572732F53544D333214
:100AF000473478785F48414C5F4472697665722F5D
:100B00005372632F73746D3332673478785F686122
:100B10006C5F6164632E630000007F40020030045C
:100B200040002019000052C7000084CB0800900C40
:100B30001000C0108000501D000180210002B0256F
:100B40000004002A0008302E001060320040C03A35
:100B50000080F03E2000F01400209036000029C3F1
:100B60000000524700008CCB00002143002098B6C3
:100B700000005AC70800908C1000C0902000F0942C
:100B8000002090B6000021C33EE000EB82002B68FD
:100B9000026EDFF894C303F0F84302EA0C020B4341
:100BA0001A4342F000410166A86940B1B0F1807F6C
:100BB00005D040F61C31AFF2D80005F0B0FE287F1A
:100BC00048B1012807D000E029E040F61D31AFF21E
:100BD000F00005F0A4FE22682869A96902EB8000F4
:100BE000026E22F080720A430266297F20682A6919
:100BF000012911D05FF0000100EB8200026E22F0AB
:100C000000720A4302667DE0002204F00CFC2068BA
:100C1000416941F000414EE74FF00071ECE70021DF
:100C200004F0EFFB400320684FF0000172D004F0A5
:100C3000E8FB90FAA0F0B0FA80F1286842036ED089
:100C400090FAA0F0B0FA80F0814204D1002211465F
:100C5000206804F0F7FB0121206804F0D2FB400378
:100C600020684FF001015DD004F0CBFB90FAA0F0BA
:100C7000B0FA80F12868420359D090FAA0F0B0FA97
:100C800080F0814204D100220121206804F0DAFBC7
:100C90000221206804F0B5FB400320684FF00201F8
:100CA00048D004F0AEFB90FAA0F0B0FA80F12868CA
:100CB000420344D090FAA0F0B0FA80F0814204D10F
:100CC00000220221206804F0BDFB0321206804F00B
:100CD00098FB400320684FF0030133D004F091FBF0
:100CE00090FAA0F0B0FA80F1286842032FD090FA71
:100CF000A0F0B0FA80F0814204D1002203212068E4
:100D000004F0A0FB2068816811F0010F22D0ABE055
:100D100000E004E004F075FBC0F384618DE7C0F3EC
:100D2000846091E704F06DFBC0F38461A2E7C0F337
:100D30008460A6E704F065FBC0F38461B7E7C0F305
:100D40008460BBE704F05DFBC0F38461CCE7C0F3D3
:100D50008460D0E72A7B296850F8B03FC1F3120CB9
:100D600023EA0C0302F0180C704A22FA0CF20A4033
:100D7000134303606E48E968814275D128684103D6
:100D80001AD090FAA0F1B1FA81F1491C01F01F01CB
:100D900009294FEA403130D8002910D090FAA0F14B
:100DA000B1FA81F101F1010101F01F0108FA01F22C
:100DB00008D1C0F3846109E0C0F38461E5E7C0F3C2
:100DC0008461EFE790FAA0F1B1FA81F101F101013C
:100DD00001F01F0142EA816102D1C0F3846003E0A7
:100DE00090FAA0F0B0FA80F000F1010000F01F00CE
:100DF00000EB400041EA005132E000290ED090FAA9
:100E0000A0F1B1FA81F100BF01F1010101F01F0170
:100E100008FA01F205D1C0F3846106E0C0F38461F1
:100E2000F2E790FAA0F1B1FA81F101F1010101F0CC
:100E30001F0142EA816102D1C0F3846003E090FAAD
:100E4000A0F0B0FA80F000F1010000F01F00394A74
:100E500000EB400002EB005041EA000141F000715C
:100E6000AA68206804F0DFFA33482B6803423FF495
:100E7000E5AD22684FF0A0483049314D424501D0E0
:100E8000B24201D1084600E028468068DFF8B4C0CD
:100E900000F0E070634503D0DFF8ACC0634520D1BB
:100EA0005FEA002C1DD4424505D05A457FF4C6ADFB
:100EB000B24200D0294640F400008A6822F0E07275
:100EC00002438A60214822490068B0FBF1F0401CCF
:100ED00000EB4000800000E0401E00900028FBD1A5
:100EE000ACE54B450ED15FEAC01C0BD4B24201D138
:100EF0005245F5D0424502D0B24200D0294640F0DA
:100F000080700AE0BB42EBD14302E9D4B242E7D0A1
:100F1000424500D0294640F480008A6822F0E07201
:100F200002438A608AE5000000F0FF03FFFF07002C
:100F300000007F40000020FE0000088000030050F9
:100F400000070050000021C31000C0900C000020DA
:100F5000400D03002DE9F84F4FF000060400009605
:100F60007ED02068DFF8E893DFF8E8A3DFF8E8B385
:100F7000FA4DB0F1A04F0CD0A8420AD0484508D095
:100F8000504506D0584504D040F29B11F4A005F01E
:100F9000C6FC6068B0F5803F2CD0B0F5003F29D08A
:100FA000B0F5403F26D028B3B0F5802F22D0B0F561
:100FB000002F1FD0B0F5402F1CD0B0F5801F19D0E6
:100FC000B0F5A01F16D0B0F5C01F13D0B0F5E01FCC
:100FD00010D0B0F5001F0DD0B0F5101F0AD0B0F53D
:100FE000201F07D0B0F5301F04D04FF4CE71DCA025
:100FF00005F095FCA06850B1082808D0102806D04C
:10100000182804D040F29D11D5A005F088FCE068B6
:1010100038B1B0F5004F04D04FF4CF71D0A005F037
:101020007EFC206944F20901884204D940F29F11F4
:10103000CBA005F074FC606930B1012804D04FF4F6
:10104000D071C7A005F06BFC607F30B1012804D0DF
:1010500040F2A111C2A005F062FC4FF4806700E0ED
:10106000EEE0206B60B1B8420AD0B0F5006F07D057
:10107000B0F5406F04D04FF4D171B9A005F04FFC2A
:10108000E06AB0F5A46F7DD0B0F5A86F7AD0B0F566
:10109000886F7DD0B0F5AC6F7AD0B0F5906F77D017
:1010A000B0F5B06F74D0B0F5B46F71D0B0F5F86F23
:1010B0006ED0B0F59C6F6BD0B0F5A06F68D0B0F576
:1010C000B86F65D0B0F5C06F62D0B0F5C46F5FD0B7
:1010D000B0F5C86F5CD0B0F5D46F59D0B0F5D86F0B
:1010E00056D0B0F5DC6F53D0B0F5E06F50D0B0F50E
:1010F000E46F4DD0B0F5E86F4AD0B0F5EC6F47D053
:10110000B0F5F06F44D0B0F5F46F41D021684FF4E2
:1011100084624FF48C6E4FF4BC634FF4986CB1F161
:10112000A04F01D0A94212D1B84231D090422FD065
:1011300070452DD098422BD0B0F5946F28D0B0F5E3
:10114000CC6F25D0B0F5D06F22D0604520D0494576
:1011500003D0514501D0594512D1984218D0904240
:1011600016D0B84214D0604512D0704510D0B0F5FA
:10117000CC6F0DD0B0F5D06F0AD0B0F5946F07D01A
:1011800000B100E004E040F2A31175A005F0C7FB38
:10119000606B50B1B0F1806F07D0B0F1006F04D038
:1011A0004FF4D2716EA005F0BAFB94F8380030B15C
:1011B000012804D040F2A51169A005F0B0FBA06998
:1011C000042806D0082804D04FF4D37164A005F099
:1011D000A6FBE06B38B1B0F5805F04D040F2A711F8
:1011E0005FA005F09CFB207F30B1012804D04FF4B4
:1011F000D4715BA005F093FB94F8400030B1012856
:1012000004D040F2A91156A005F089FB606918B31B
:10121000206A401E0F2804D940F2AD1150A005F0FD
:101220007EFB94F8240018B301280CD04FF4D7713A
:101230004BA005F074FB94F82400012803D017E0BC
:101240000120BDE8F88FA06A401E072808D94FF496
:10125000D97143A005F063FB94F82400012807D15D
:10126000607F012804D140F2B7113DA005F057FB83
:10127000E06D30B9204600F06DF90020206684F85A
:10128000580020688168C1F3407119B18168424AF1
:101290001140816020688168C1F3007189B981685B
:1012A0003E4A114041F0805181603D483D4900680F
:1012B000B0FBF1F04000801C00E0401E00900028D0
:1012C000FBD120688168C1F3007141B9E16D41F043
:1012D0001001E165216E41F001012166012604F053
:1012E0009AF80746E06D00F01001E06D394305D033
:1012F00040F01000E06501263046A2E720F480703F
:1013000040F00200E0652068816811F0010F54D1BF
:101310004FF0A042904201D0A84204D19168AB683E
:1013200001F001010AE0D9F80810DAF8083001F0FC
:10133000010103F001031943DBF8083003F0010356
:1013400019433AD1904201D0A8422FD116482EE03D
:10135000000400500005005000060050000100503D
:101360002E2E2F447269766572732F53544D33328B
:10137000473478785F48414C5F4472697665722FD4
:101380005372632F73746D3332673478785F68619A
:101390006C5F6164632E6300C0FFFF5FC0FFFF7F6F
:1013A0000C000020400D03000003005066486168F7
:1013B000826822F47C120A438260E168E06B627FFB
:1013C0000843A16841EA4231084394F8241040EAF6
:1013D0000140012904D1218D5C4A02EB41410843BF
:1013E000E16A29B101F47871226B014342EA0100FC
:1013F0002268D168564B19400143D16020680169C9
:10140000626B21F0406111430161206803F0FFFF2E
:1014100007432ED1207F94F83810800340EA410220
:101420002068C16844F2020399431143C1602069F6
:101430000028206801690AD041F4803101612068E8
:1014400050F8C01F22696FF30D01114307E021F42A
:1014500080310161206850F8C01F6FF30D010160F9
:1014600094F8400001280CD02068016921F00101A6
:101470000161606901282068016B21F00F0158D0DB
:101480005AE0606C98B1042811D008280FD00C28BD
:101490000DD010280BD0142809D0182807D01C28EC
:1014A00005D040F27621AFF2481005F038FAA06C72
:1014B000B0B1202814D0402812D0602810D0802845
:1014C0000ED0A0280CD0C0280AD0E02808D0B0F553
:1014D000807F05D040F27721AFF27C1005F01FFA33
:1014E000E06C40B1B0F5007F05D04FF41E71AFF253
:1014F000901005F014FA206D012809D0A0F5806144
:10150000013905D040F27921AFF2AC1005F007FAAD
:10151000D4E911010843D4E91312114308432168A7
:101520000A6940F2FC739A43104340F001000861DD
:101530009FE7226A521E11430163E06D20F0020012
:1015400040F00100E065D7E6000700500000FEFF14
:101550000740F0FF10B59CB00446142115A8FEF713
:1015600022FF54216846FEF71EFF2068B0F1A04F0D
:1015700026D14FF40040009080031190684601F09E
:101580009DFE08B1FEF775FF0E48C16C41F4005195
:10159000C164C16C01F400511A91C16C41F00201A7
:1015A000C164C06C15A900F002001A904FF480507D
:1015B00015900320169000201790034800F046FA7B
:1015C0001CB010BD00100240000400482DE9F05F7F
:1015D00004007DD0E84E2068DFF8A083DFF8A0A3E8
:1015E000B04208D0404506D0504504D04FF4987121
:1015F000E4A005F094F92068B04224D1606810B3EB
:10160000012820D002281ED003281CD004281AD07C
:10161000052818D0062816D0072814D0082812D07C
:10162000092810D00A280ED00B280CD00C280AD07C
:101630000D2808D00E2806D00F2804D040F2331110
:10164000D0A005F06CF9A0684FF4407548B1B0F532
:10165000807F06D0A84204D040F23511C9A005F021
:101660005EF9E06860B101280AD0022808D003289A
:1016700006D0042804D04FF49B71C2A005F04FF9A6
:10168000207C30B1012804D040F23711BDA005F014
:1016900046F9607C30B1012804D04FF49C71B9A0A8
:1016A00005F03DF9A07C30B1012804D040F2391199
:1016B000B4A005F034F96069401EB0F5007F04D392
:1016C0004FF49D71AFA005F02AF9A069401E00E01B
:1016D0005FE07F2804D940F23B11AAA005F01FF972
:1016E000E069401EFF2804D94FF49E71A5A005F0C3
:1016F00016F9206A401E7F2804D940F23D11A1A0AE
:1017000005F00DF9A068AB46584523D1606A401E2C
:101710001F2804D94FF4A0719AA005F000F9A06A1F
:10172000401E0F2804D940F2411196A005F0F7F8A9
:10173000E06A401E1F2804D94FF4A17191A005F062
:10174000EEF8206B401E0F2804D940F243118DA003
:1017500005F0E5F8606B1C2804D940F2451189A01A
:1017600005F0DDF8A06B082804D94FF4A37185A01B
:1017700005F0D5F8E06B38B1B0F1807F04D040F2CD
:10178000471180A005F0CBF894F85C00002518B153
:1017900007E00120BDE8F09F84F85D50204600F08E
:1017A00015F92068816921F01001816100F0E2FAE9
:1017B00007464FF0030904E000F0DCFAC01B0A28DA
:1017C00011D8206880690007F6D42068816941F04B
:1017D0000101816100F0CEFA07460BE000F0CAFA81
:1017E000C01B0A2806D9206E40F00100206684F84C
:1017F0005C90CEE720688069C007EFD020688169DF
:1018000041F0020181612068B04202D16C496068F8
:101810000860207C01282068816937D041F04001B0
:101820008161607C01282068816932D021F4804187
:101830008161A07C0128206881692DD041F480510C
:10184000816120688169A26821F44071114381613E
:101850002068816921F0A40181612068016921F07B
:1018600010010161E068012819D010B302281BD0D3
:101870002068816941F0800181612068016941F03F
:1018800010010161E06803280ED012E021F0400150
:10189000C6E741F48041CBE721F48051D0E72068CE
:1018A000816941F0040103E02068816941F0200171
:1018B0008161207EE26940066FF0FF0101EB0222A8
:1018C000A0F100701043226AA38A521E10430A023C
:1018D00002EB034318432368D861A068584510D130
:1018E000D4E90A0301EB0321401E0843216B1313C3
:1018F00003EB01110843A18C02EB0141084321686D
:10190000C860206850F8C01FE26B11430160216875
:101910002C48414500D12C48514501D100F5D460F7
:10192000206451F8802FA38E22F4F81242EA034279
:101930000A6000F170016164216851F8802F94F809
:10194000383022F0706242EA03620A6000F1B001AE
:10195000A164D831E164D831216518316165D8318D
:1019600000E020C08842FCD3A5652566012084F8EC
:101970005C0000200EE700000064004000680040AA
:10198000006C00402E2E2F447269766572732F53BF
:10199000544D3332473478785F48414C5F44726924
:1019A0007665722F5372632F73746D333267347898
:1019B000785F68616C5F666463616E2E630000002F
:1019C0000065004000A4004050A7004010B59CB046
:1019D0000446142115A8FEF7E6FC54216846FEF7DC
:1019E000E2FC17492068884227D180140090400308
:1019F0000E90684601F062FC08B1FEF73AFD11480E
:101A0000816D41F000718165816D01F000711A9165
:101A1000C16C41F00201C164C06C15A900F0020064
:101A20001A901820159002201690002017901890F8
:101A30000B201990044800F009F81CB010BD0000FC
:101A4000006C004000100240000400482DE9F84FEF
:101A500000274FF0904ADFF85482DFF854B20D4669
:101A60000446504513D0444511D05C450FD09148F1
:101A700084420CD09048844209D09048844206D0D9
:101A80008F48844203D0A9218EA004F048FF286823
:101A90000104090C01D0000C03D0AA2189A004F094
:101AA0003EFF68684FF0030900281FD00128FCD0D2
:101AB0001128FAD00228F8D01228F6D0B0F5881FE5
:101AC000F3D0B0F5041FF0D0B0F5441FEDD0B0F561
:101AD000901FEAD0B0F5081FE7D0B0F5481FE4D05A
:101AE0000328E2D0AB2177A004F019FFD6E0012053
:101AF000B840009006407CD0287900F0030001280F
:101B000001D002281DD1E86848B1012807D0022879
:101B100005D0032803D0BB216AA004F000FFA16810
:101B2000780009FA00F29143EA6882400A43A26011
:101B30006068009988432979C1F30011B9400143D5
:101B400061602879C043800712D0A86838B10128A5
:101B500005D0022803D0CC215AA004F0E0FEE268B0
:101B6000780009FA00F18A43A96881401143E160D5
:101B7000287900F00300022829D1544513D04445A8
:101B800011D05C450FD04B4884420CD04A48844267
:101B900009D04A48844206D04948844203D0D9211A
:101BA00048A004F0BCFE28690F2803D9DA2145A01B
:101BB00004F0B5FEF80804EB8000026A7907CB0E4A
:101BC0000F2199408A432969994011430162216894
:101BD000780009FA00F291432A7902F00302824068
:101BE0000A432260686810F4403F56D04448016EB2
:101BF00000E052E041F001010166006E27F00301B0
:101C000000F0010000903F4801448868BA07130FB4
:101C10000F229A409043544501D1002217E04445D9
:101C200001D1012213E05C4501D102220FE0214ADB
:101C3000944201D103220AE01F4A944201D10422B6
:101C400005E01E4A944201D1052200E006229A4096
:101C500002438A602C4A10686968B043C90200D503
:101C600030431060284A121D10686968B043890229
:101C700000D5304310602449091F08686A68B043E2
:101C8000920300D5304308601F49083908686A6824
:101C9000B043D20300D5304308607F1C2E6836FA6B
:101CA00007F07FF424AFBDE8F88F0000000400487F
:101CB00000080048000C00480010004800140048CC
:101CC000001800482E2E2F447269766572732F53C8
:101CD000544D3332473478785F48414C5F447269E1
:101CE0007665722F5372632F73746D333267347855
:101CF000785F68616C5F6770696F2E630000000039
:101D000000100240000001400804014070B5154673
:101D10000C00064604D14FF4CD7107A004F0FFFD7E
:101D200045B1012D04D040F29B1103A004F0F7FD52
:101D3000B46170BDB46270BD2E2E2F447269766599
:101D400072732F53544D3332473478785F48414C87
:101D50005F4472697665722F5372632F73746D33AB
:101D600032673478785F68616C5F6770696F2E6383
:101D7000000000000148806870470000000000205B
:101D800070B504460D46481C0BD055B1042D08D043
:101D9000082D06D00C2D04D04FF4427116A004F08B
:101DA000BEFD94F8DC00012821D0012084F8DC007D
:101DB000022184F8DD10691C2168D1F8CC2318D0E9
:101DC00042F00202C1F8CC232168D1F8CC2322F0E2
:101DD0000C022A43C1F8CC232168D1F8CC2342F06D
:101DE0000102C1F8CC2384F8DD00002070BD022080
:101DF00070BD22F00202EDE72E2E2F447269766547
:101E000072732F53544D3332473478785F48414CC6
:101E10005F4472697665722F5372632F73746D33EA
:101E200032673478785F68616C5F687274696D2EB0
:101E30006300000070B514460D0006460ED0012D5B
:101E40000CD0022D0AD0032D08D0042D06D0052D6C
:101E500004D041F2CE514EA004F061FD2068C8B11B
:101E6000B0F5806F16D0B0F5006F13D0B0F5406FAD
:101E700010D0B0F5805F0DD0B0F5A05F0AD0B0F5FE
:101E8000C05F07D0B0F5E05F04D041F2CF5140A071
:101E900004F045FDA06838B1B0F5007F04D041F2F0
:101EA000D0513BA004F03BFDE06838B1B0F5004FE5
:101EB00004D041F2D15136A004F031FD206938B18F
:101EC000B0F5804F04D041F2D25131A004F027FD8B
:101ED000A06938B1B0F1007F04D041F2D3512CA0F9
:101EE00004F01DFDE06938B1B0F1004F04D041F2BB
:101EF000D45127A004F013FD206A38B1B0F1804F0F
:101F000004D041F2D55122A004F009FD96F8DD007D
:101F100002283AD096F8DC00012837D0012206F8D2
:101F2000DC2F0220707020886FF07E4300F4E051B7
:101F3000A088C0F308000843218901F4007101431F
:101F4000208A00F480400843A18901F40041014344
:101F5000A08A03EA00400843A16901F0007101432F
:101F6000206A00F08043E0690B4300F00040184312
:101F700056F8DC1CB82303EBC5140B59134D2B404A
:101F800003430B5172700020307070BD022070BD91
:101F90002E2E2F447269766572732F53544D33324F
:101FA000473478785F48414C5F4472697665722F98
:101FB0005372632F73746D3332673478785F68615E
:101FC0006C5F687274696D2E630000000020003C35
:101FD000F8B504007ED04A4E2068B04204D040F2EA
:101FE000332148A004F09BFC55496068084204D0A6
:101FF0004FF40D7143A004F092FC022084F8DD0040
:102000000025C4F8E050C4F8E450C4F8E850C4F81F
:10201000EC50C4F8F050C4F8F450C4F8F850207AEA
:10202000C00737D0206968B1B0F5804F0AD0B0F54D
:10203000004F07D0B0F5404F04D04FF41B7131A0D2
:1020400004F06DFC606950B1B0F5005F07D0B0F5E9
:10205000405F04D040F26D212AA004F060FC2068AB
:10206000B04208D13748016E41F080610166006ED0
:1020700000F0806000902168086820F44042208AC7
:1020800000F44040104320F44052A08A00F4405035
:1020900010430860204600F057F8207A800715D5D5
:1020A000E06850B1B0F5007F07D0B0F5407F04D0B4
:1020B00040F2912113A004F032FC2168086820F45A
:1020C0004072A08900F4407010430860012084F839
:1020D000DD0000E012E084F8DC500021C1EBC1001B
:1020E00004EB8000491C8561C5610562456285621B
:1020F000C9B205630629F1D90020F8BD0120F8BD59
:10210000006801402E2E2F447269766572732F533A
:10211000544D3332473478785F48414C5F4472699C
:102120007665722F5372632F73746D333267347810
:10213000785F68616C5F687274696D2E630000007F
:1021400080FFFCFF0010024008B500680649884285
:1021500008D10648016E41F080610166006E00F012
:102160008060009008BD000000680140001002403F
:1021700010B586B0044614216846FEF714F90F49DD
:102180002068884218D10E48C16C41F00101C16439
:10219000C06C694600F0010005904FF4706000903B
:1021A0000220019000200290032003900D20049053
:1021B0004FF09040FFF74AFC06B010BD00680140A8
:1021C0000010024070B50D460446FFF7D3FD0646E9
:1021D00007E0681C05D0FFF7CDFD801BA8420DD895
:1021E00065B12068D0F88803C043C003F1D4012052
:1021F00084F8DD00002084F8DC0070BD072084F83E
:10220000DD00032070BD000070B515460C46064683
:1022100006290FD074B1012C0CD0022C0AD0032C4B
:1022200008D0042C06D0052C04D040F296312EA004
:1022300004F075FBA86890B1012810D002280ED0D8
:1022400003280CD004280AD0052808D0062806D078
:10225000072804D040F2973123A004F060FBE8681F
:10226000082807D030B1102804D04FF466711EA0A2
:1022700004F055FB96F8DD00022822D0022086F8F3
:10228000DD00062C1ED08020326800EBC4115058AF
:1022900020F00703A868184320F01803E8681843E3
:1022A00050509422316802EBC4122868885098225A
:1022B000316802EBC41268688850012086F8DD009E
:1022C000002070BD3168086820F00702A86810433C
:1022D00020F01802E86810430860316828684861F7
:1022E000316868688861E8E72E2E2F447269766548
:1022F00072732F53544D3332473478785F48414CD2
:102300005F4472697665722F5372632F73746D33F5
:1023100032673478785F68616C5F687274696D2EBB
:10232000630000002DE9F05F1D4690460E4604460E
:1023300006290FD076B1012E0CD0022E0AD0032E22
:1023400008D0042E06D0052E04D041F2CF615DA046
:1023500004F0E5FA94F8DD00022828D094F8DC00B7
:10236000012823D0012084F8DC00022084F8DD005D
:102370000720062E1DD09C2101EBC61AB8F1010FD3
:1023800044D0A823802103EBC6134FF48052994612
:102390004FF4005B01EBC617B8F1020F38D0B8F16B
:1023A000040F5ED0B8F1080F0FD15EE00220BDE847
:1023B000F09FB8F1010F0ED0B8F1020F0FD0B8F1B5
:1023C000040F10D0B8F1080F11D084F8DD00002000
:1023D00084F8DC000EE021682868C8610AE0216802
:1023E0002868486206E021682868886202E021685F
:1023F0002868C86294F8DD0007284FF00100D6D0A5
:1024000084F8DD00002084F8DC00D0E7296820E0B3
:10241000686858B1904209D0584507D0B0F5405F80
:1024200004D041F2177127A004F079FAA4222168A0
:1024300002EBC61228688850686800282068C159D5
:1024400021F440513CD0C1512068C1596A68114300
:102450002CE05046226802E0A968226848461150E4
:10246000C8E721682A68CA50C4E7686858B1904232
:1024700009D0584507D0B0F5405F04D041F244710F
:1024800010A004F04CFAAC22216802EBC6122868B6
:102490008850686800282068C15921F440410FD055
:1024A000C1512068C1596A6841EA8201C151686816
:1024B000584501D1A968CCE7B0F5405FCCD099E789
:1024C000C15197E72E2E2F447269766572732F5390
:1024D000544D3332473478785F48414C5F447269D9
:1024E0007665722F5372632F73746D33326734784D
:1024F000785F68616C5F687274696D2E63000000BC
:1025000070B504460D4631F4FE0004D041F60411C6
:102510000BA004F004FA94F8DC0001280DD001208F
:1025200004F8DC0F0221617054F8DC1C0A682A43AD
:102530000A6060700020207070BD022070BD000035
:102540002E2E2F447269766572732F53544D333299
:10255000473478785F48414C5F4472697665722FE2
:102560005372632F73746D3332673478785F6861A8
:102570006C5F687274696D2E630000002DE9F04194
:102580001D4614460E0007460AD0012E0DD0022E1D
:1025900010D0032E13D0042E16D0052E1BD020E011
:1025A000012C23D0022C21D01BE0042C1ED0082C9F
:1025B0001CD016E0102C19D0202C17D011E0402C84
:1025C00014D0802C12D00CE0B4F5807F0ED0B4F57E
:1025D000007F0BD005E0B4F5806F07D0B4F5006F35
:1025E00004D041F606012DA004F099F9286830B115
:1025F000022804D041F6070128A004F090F92869C8
:1026000030B1082804D041F6080124A004F087F96D
:10261000E86830B1042804D041F609011FA004F095
:102620007EF9686950B1102808D0202806D03028DB
:1026300004D041F60A0119A004F071F9A86930B17B
:10264000402804D041F60B0114A004F068F9E869B1
:1026500030B1802804D041F60C0110A004F05FF9DD
:1026600097F8DD00022815D097F8DC00012813D078
:102670004FF0010887F8DC80022087F8DD002B4648
:1026800022463146384602F07EFD87F8DD80002084
:1026900087F8DC00BDE8F0810220FBE72E2E2F44F6
:1026A0007269766572732F53544D3332473478789C
:1026B0005F48414C5F4472697665722F5372632F95
:1026C00073746D3332673478785F68616C5F6872F9
:1026D00074696D2E6300000070B504460D46080B4A
:1026E00004D041F6B5010CA004F019F994F8DC000F
:1026F00001280FD0012004F8DC0F0221617054F88A
:10270000DC1CD1F894232A43C1F894236070002084
:10271000207070BD022070BD2E2E2F447269766528
:1027200072732F53544D3332473478785F48414C9D
:102730005F4472697665722F5372632F73746D33C1
:1027400032673478785F68616C5F687274696D2E87
:10275000630000002DE9F04714460D4606460629A1
:102760000FD075B1012D0CD0022D0AD0032D08D049
:10277000042D06D0052D04D041F26331AFA004F042
:10278000CEF8606930B1202804D041F26631ABA0A8
:1027900004F0C5F8A06950B1022808D0032806D07B
:1027A000042804D041F26731A4A004F0B8F8E0692D
:1027B00038B1B0F5006F04D041F268319FA004F049
:1027C000AEF8206A38B1B0F5806F04D041F26931BB
:1027D0009AA004F0A4F8606A68B1B0F1007F0AD052
:1027E000B0F1806F07D0B0F1C06F04D041F26A3110
:1027F00092A004F094F8A06A38B1B0F1006F04D050
:1028000041F26B318DA004F08AF8206B38B1B0F53D
:10281000803F04D041F26C3188A004F080F8606BF6
:102820004FF0005730B1B84204D041F26D3183A06F
:1028300004F075F896F8DD0002287FD096F8DC00E9
:1028400001287AD04FF0010886F8DC80022086F853
:10285000DD00C106E06A062D72D04FF00049C8B114
:10286000884217D0B84215D0B0F1405F12D0B0F115
:10287000804F0FD0B0F1A04F0CD0B0F1C04F09D0B5
:10288000B0F1E04F06D0484504D041F286316BA04C
:1028900004F045F8206847F6DF71884304D041F220
:1028A000873166A004F03BF873496068084204D0A1
:1028B00041F2883161A004F032F8A06B30B14028B9
:1028C00004D041F289315DA004F029F8E06B800961
:1028D00004D041F28A3159A004F021F8206C30B1C3
:1028E000484504D041F28B3154A004F018F8606CD4
:1028F00038B1B0F5807F04D041F28C314FA004F0A4
:102900000EF8A06C002846D0B0F5007F43D0B0F59B
:10291000C06F40D0B0F5206F3DD0B0F5905F3AD099
:10292000B0F5B05F37D0B0F5D05F34D0A16B40299F
:1029300026D02BE002E000E002E00220BDE8F087B4
:1029400040B1884206D0B84204D041F27C313BA06D
:1029500003F0E5FF2068C00904D041F27D3137A0C3
:1029600003F0DDFF606830F4FE0004D041F27E31F8
:1029700032A003F0D4FF2146304602F0BBFB35E025
:10298000B0F5606F07D0B0F5F05F04D041F28E3142
:102990002AA003F0C4FFE06C38B1B0F5804F04D03A
:1029A00041F2903125A003F0BAFF3449206D08426E
:1029B00004D041F2913121A003F0B1FFA06D38B1F4
:1029C000B0F5802F04D041F293311CA003F0A7FF93
:1029D000E06D30B1012804D041F2943117A003F02A
:1029E0009EFF22462946304602F03CFCC5EBC5005E
:1029F00006EB80002168016261684162A168816222
:102A0000E168C162216901632946304602F03EFB5C
:102A1000062D0CD0E06A50B98021306801EBC51159
:102A20004258E36D22F4007242EA4322425086F893
:102A3000DD80002086F8DC0080E700002E2E2F4489
:102A40007269766572732F53544D333247347878F8
:102A50005F48414C5F4472697665722F5372632FF1
:102A600073746D3332673478785F68616C5F687255
:102A700074696D2E63000000FFFF2080FFFF06FEDB
:102A80002DE9F04114460D46064606290FD075B1D2
:102A9000012D0CD0022D0AD0032D08D0042D06D014
:102AA000052D04D041F2CB3142A003F038FF20685D
:102AB00030B1012804D041F2CD313EA003F02FFF08
:102AC000606838B1B0F5801F04D041F2CE3139A032
:102AD00003F025FFA06838B1B0F5003F04D041F203
:102AE000CF3134A003F01BFFE06838B1B0F5803F70
:102AF00004D041F2D0312FA003F011FF206930B192
:102B0000042804D041F2D1312AA003F008FF606903
:102B100030B1022804D041F2D23126A003F0FFFEEA
:102B2000A06930B1012804D041F2D33121A003F0D3
:102B3000F6FE96F8DD00022824D096F8DC00012885
:102B40001FD0012786F8DC70022086F8DD00EC201B
:102B5000326800EBC5115058236820F0100040EA9D
:102B6000031020F480136068184320F48033E06879
:102B7000184320F40033A0681843A369012B03D045
:102B80000CE00220BDE8F08120F004032069184326
:102B900020F002036069184340F0010050502946BC
:102BA000304602F073FA86F8DD70002086F8DC000B
:102BB000E8E700002E2E2F447269766572732F535A
:102BC000544D3332473478785F48414C5F447269E2
:102BD0007665722F5372632F73746D333267347856
:102BE000785F68616C5F687274696D2E63000000C5
:102BF00070B50D4604460068204988420CD0204933
:102C0000884209D01F49884206D01F49884203D014
:102C100063211EA003F083FE35B1B5F5805F03D0BC
:102C200064211AA003F07BFE94F84100202823D1F0
:102C300094F8400001281FD0012084F8400024208F
:102C400084F841002068016821F0010101602068DA
:102C5000016821F480510160206801682943016006
:102C60002068016841F001010160202084F84100E2
:102C7000002084F8400070BD022070BD0054004068
:102C80000058004000780040008400402E2E2F4461
:102C90007269766572732F53544D333247347878A6
:102CA0005F48414C5F4472697665722F5372632F9F
:102CB00073746D3332673478785F68616C5F693242
:102CC000635F65782E63000070B50D4604460068AA
:102CD0001E4988420CD01E49884209D01D498842AD
:102CE00006D01D49884203D091211CA003F017FE95
:102CF0000F2D03D9922119A003F011FE94F8410081
:102D0000202821D194F8400001281DD0012084F80A
:102D10004000242084F841002068016821F001016E
:102D200001602068016821F4706141EA05210160B9
:102D30002068016841F001010160202084F8410011
:102D4000002084F8400070BD022070BD0054004097
:102D50000058004000780040008400402E2E2F4490
:102D60007269766572732F53544D333247347878D5
:102D70005F48414C5F4472697665722F5372632FCE
:102D800073746D3332673478785F68616C5F693271
:102D9000635F65782E63000070B5040064D05C4901
:102DA000206888420DD05B4988420AD05A4988423F
:102DB00007D05A49884204D04FF4087158A003F054
:102DC000AEFDA068B0F5806F04D340F2212154A07D
:102DD00003F0A5FDE068012806D0022804D040F2E7
:102DE00022214FA003F09BFD206938B1B0F5004FC0
:102DF00004D040F223214AA003F091FD6069FF282E
:102E000004D94FF4097146A003F089FDA06990B17F
:102E1000012810D002280ED003280CD004280AD094
:102E2000052808D0062806D0072804D040F225211E
:102E30003BA003F074FDE06938B1B0F5002F04D079
:102E400040F2262136A003F06AFD206A38B1B0F5C1
:102E5000003F04D040F2272131A003F060FD94F838
:102E60004100002510B106E0012070BD84F84050FB
:102E7000204600F073F8242084F84100206801689F
:102E800021F0010101606068216820F07060086134
:102E90002068816821F400418160E0680128A06811
:102EA00030D040F4044021688860E068022820683F
:102EB00041682AD021F40061416020684168264AB7
:102EC000114341602068C16821F40041C160D4E928
:102ED00004010843A16940EA01202168C860D4E9DF
:102EE00007010843216808602068016841F001017A
:102EF00001606564202084F84100256384F8425015
:102F0000002070BD40F40040CDE741F40061D3E7FC
:102F10000054004000580040007800400084004009
:102F20002E2E2F447269766572732F53544D3332AF
:102F3000473478785F48414C5F4472697665722FF8
:102F40005372632F73746D3332673478785F6861BE
:102F50006C5F6932632E63000080000230B59BB065
:102F60000446142115A8FDF71EFA54216846FDF702
:102F70001AFA17492068884227D14020002500907E
:102F80000795684600F09AF908B1FDF772FA114CFE
:102F9000E06C40F00200E064E06C15A900F0020073
:102FA0001A904FF4407015901220CDE916050420B8
:102FB000CDE918500848FEF749FDA06D40F4001017
:102FC000A065A06D00F400101A901BB030BD000089
:102FD000005400400010024000040048024881688C
:102FE00042681144816070470000002010B5002441
:102FF000032000F095F80F2000F008F808B1012434
:1030000001E000F025F8204610BD000070B50E4E1E
:1030100005460024706898B14FF47A71B1FBF0F066
:103020000A490968B1FBF0F001F064FA40B9102DCB
:1030300006D200222946501E00F022F8356000E03A
:103040000124204670BD0000000000200C0000207C
:103050000A4882B0016E41F001010166016E01F083
:1030600001010091816D41F080518165806D00F01A
:103070008050009002B000F019B90000001002402A
:1030800070B515460C460646102A03D3BE2114A07F
:1030900003F045FC102C03D3BF2111A003F03FFC2B
:1030A0001E480068C0F30223C3F107022046042A29
:1030B00000D90422191D072901D2002300E0DB1EDC
:1030C000012404FA02F1491E014099409C40641E0B
:1030D0002C4021433046BDE8704003F010BC000096
:1030E0002E2E2F447269766572732F53544D3332EE
:1030F000473478785F48414C5F4472697665722F37
:103100005372632F73746D3332673478785F6861FC
:103110006C5F636F727465782E6300000CED00E0E5
:1031200010B5044607280BD0062C09D0052C07D073
:10313000042C05D0032C03D0A62108A003F0EFFB3C
:10314000154904F0070208684FF6FF03184040EAEB
:103150000220124A1043086010BD00002E2E2F449A
:103160007269766572732F53544D333247347878D1
:103170005F48414C5F4472697665722F5372632FCA
:1031800073746D3332673478785F68616C5F636F36
:10319000727465782E6300000CED00E00000FA0503
:1031A000304910B50968304A3223304C5943D0B108
:1031B000B0F5007F0CD0B0F5806F03D09D212CA01E
:1031C00003F0ADFB206820F4C06040F4806008E0AC
:1031D0002068C0F3412002282AD054F8800F40F420
:1031E000807020603BE02068C0F34120022804D0BA
:1031F00054F8800F20F48070F3E7D4F8800020F4B6
:103200008070C4F88000206820F4C06040F4007032
:103210002060B1FBF2F0401C00E0401E61694905EE
:1032200001D50028F9D16069400518D5032010BDEB
:10323000D4F8800040F48070C4F88000206820F446
:10324000C06040F400702060B1FBF2F0401C00E070
:10325000401E61694905E6D50028F9D1E3E7002061
:1032600010BD00000C00002040420F000070004024
:103270002E2E2F447269766572732F53544D33325C
:10328000473478785F48414C5F4472697665722FA5
:103290005372632F73746D3332673478785F68616B
:1032A0006C5F7077725F65782E63000002488168FA
:1032B00041F4804181607047007000402DE9F84F73
:1032C000044600680026C1074FF4807A4FF4007B63
:1032D000FE4D29D1810727D4410725D4010723D4E6
:1032E000C10621D481061FD441061DD401061BD47A
:1032F000C10519D4810317D4810515D4410513D410
:10330000010511D4C1040FD481040DD441040BD4A0
:10331000010409D4C10307D4410305D4000306D432
:103320008321EBA003F0FBFA206800036BD5206D2E
:10333000002750B1504508D0584506D0B0F5407F21
:1033400003D08B21E2A003F0EAFAA86DC00008D4F4
:10335000A86D40F08050A865A86D012700F080504E
:103360000090DFF8A893D9F8001041F48071C9F8F3
:103370000010FEF7FFFC804606E000BFFEF7FAFCF7
:10338000A0EB080002282BD8D9F80000C005F5D51D
:10339000D5F8900010F4407014D0216D814211D006
:1033A000D5F89000D5F8901020F4407041F48031A9
:1033B000C5F89010D5F8901021F48031C5F8901020
:1033C000C5F89000C00711D0FEF7D4FC804641F24A
:1033D000883907E0FEF7CEFCA0EB0801494501D98A
:1033E00003260BE0D5F890008007F3D5D5F89000C0
:1033F000216D20F440700843C5F890001FB1A86DFE
:1034000020F08050A8652078C00713D0606848B1CC
:10341000012807D0032805D0022803D0E021ACA062
:1034200003F07DFAD5F88800616820F003000843B6
:10343000C5F888002078800713D5A06848B1042813
:1034400007D00C2805D0082803D0EA21A0A003F05B
:1034500066FAD5F88800A16820F00C000843C5F88A
:1034600088002078400713D5E06848B1102807D0BD
:10347000302805D0202803D0F62195A003F04FFA7C
:10348000D5F88800E16820F030000843C5F88800CE
:103490002078000714D5206950B1402808D0C028F2
:1034A00006D0802804D040F2031189A003F037FA37
:1034B000D5F88800216920F0C0000843C5F88800CD
:1034C0002078C00615D5606958B1504509D0B0F5CF
:1034D000407F06D0584504D04FF488717CA003F09B
:1034E0001EFAD5F88800616920F440700843C5F8D9
:1034F00088002078800617D5A06968B1B0F5806F84
:103500000AD0B0F5406F07D0B0F5006F04D04FF48B
:103510008E716FA003F003FAD5F88800A16920F43A
:1035200040600843C5F888002078400614D5E0695B
:1035300050B1B0F5805F07D0B0F5005F04D04FF414
:10354000937163A003F0EBF9D5F88800E16920F4EA
:1035500040500843C5F888002078000614D5206A3A
:1035600050B1B0F5804F07D0B0F5004F04D04FF404
:10357000987157A003F0D3F9D5F88800216A20F498
:1035800040400843C5F888002088C00514D5606A0B
:1035900050B1B0F5803F07D0B0F5003F04D040F205
:1035A0003B114BA003F0BBF9D5F88800616A20F409
:1035B00040300843C5F888002068800312D5A06A0F
:1035C00040B1012806D0022804D04FF4A47140A0D5
:1035D00003F0A5F9D5F89C00A16A20F00300084388
:1035E000C5F89C002088800517D5E06A68B1B0F561
:1035F000802F0AD0B0F5002F07D0B0F5402F04D0AF
:103600004FF4AA7132A003F08AF9D5F88800E16A74
:1036100020F440200843C5F8880020884FF4801823
:1036200040054FF400191CD5206B58B1404509D016
:10363000484507D0B0F5401F04D040F25F1124A0E8
:1036400003F06DF9D5F88800216B20F44010084391
:10365000C5F88800206B404503D1E86840F480102D
:10366000E860208800051FD5606B4FF4800760B1CB
:10367000B8420AD0B0F5000F07D0B0F5400F04D023
:103680004FF4B97112A003F04AF9D5F88800616BC4
:1036900020F440000843C5F88800606BB84203D1AD
:1036A000E86840F48010E8602088C0043FD5A06B33
:1036B0004FF0807748B1B84207D0B0F1007F04D016
:1036C00040F2851102A003F02AF921E00010024027
:1036D0002E2E2F447269766572732F53544D3332F8
:1036E000473478785F48414C5F4472697665722F41
:1036F0005372632F73746D3332673478785F686107
:103700006C5F7263635F65782E6300000070004039
:10371000D5F88800A16B20F040700843C5F88800F8
:10372000A06BB84203D1E86840F48010E8602088BC
:103730004FF00067800418D5E06B38B1B84205D06F
:1037400040F29711AFF2780003F0E9F8D5F888005D
:10375000E16B20F040600843C5F88800E06BB84298
:1037600003D1E86840F48010E8602088400418D550
:10377000206C38B1B84205D04FF4D371AFF2B0002D
:1037800003F0CDF8D5F88800216C20F040600843A4
:10379000C5F88800206CB84203D1E86840F4801076
:1037A000E860208800041DD5606C4FF0805750B150
:1037B000B84208D0B0F1005F05D04FF4DA71AFF233
:1037C000F00003F0ACF8D5F88800616C20F04050B0
:1037D0000843C5F88800606CB84203D1E86840F43B
:1037E0008030E8602068C0031DD5A06C4FF0804792
:1037F00050B1B84208D0B0F1004F05D040F2C51129
:10380000AFF2341003F08BF8D5F88800A16C20F0EB
:1038100040400843C5F88800A06CB84203D1E8686E
:1038200040F48030E860206840031AD5E06C4045E1
:1038300008D038B1484505D04FF4EC71AFF27010A4
:1038400003F06DF8D5F89C00E16C20F440100843BB
:10385000C5F89C00E06C484503D1E86840F480104E
:10386000E8603046BDE8F88F2DE9F0470D460600C8
:103870004FF000075FD03068010701D0000904D085
:1038800040F20B31A3A003F04AF815B3012D20D06C
:10389000022D1ED0032D1CD0042D1AD0052D18D0BA
:1038A000062D16D0072D14D0082D12D0092D10D0BA
:1038B0000A2D0ED00B2D0CD00C2D0AD00D2D08D0BA
:1038C0000E2D06D00F2D04D04FF4437191A003F0BC
:1038D00026F8DFF87882D8F8000000F00F00A84240
:1038E0000CD2D8F8001021F00F012943C8F80010BD
:1038F000D8F8000000F00F00A8421CD13078944C9A
:10390000C00741F2883A68D07068DFF84892012811
:103910000DD002283BD0032810D040F223317DA0E7
:1039200002F0FDFF7068032808D002282FD020681D
:10393000400500282EDB0120BDE8F08720688001CB
:10394000F9D5E06800F00301E068C0F30310401C03
:1039500003291AD0804900BFB1FBF0F0E168C1F340
:1039600006214843E168C1F34161491C4900B0FBAD
:10397000F1F0484519D9A06810F0F00F0ED030785A
:10398000800712D5B06848B10FE07449E4E72068B9
:103990008003CEE700F00EF9484506D9A06820F074
:1039A000F00040F08000A0608027A068716820F0DF
:1039B00003000843A060FEF7DDF9814606E000BF82
:1039C000FEF7D8F9A0EB0901514550D8A0687168FD
:1039D00000F00C00B0EB810FF2D1306881072BD5DD
:1039E000400703D5A06840F4E060A060307800078D
:1039F00005D5A06820F4605040F4E060A060B06895
:103A0000A0B1802812D0902810D0A0280ED0B028C5
:103A10000CD0C0280AD0D02808D0E02806D0F02842
:103A200004D040F27A313BA002F079FFA068B1687F
:103A300020F0F000084304E0802F03D1A06820F0BC
:103A4000F000A060D8F80010404601F00F01A94234
:103A500015D9016821F00F0129430160FEF78AF9A9
:103A6000074606E0FEF786F9C11B514501D9032040
:103A700062E7D8F8000000F00F00A842F2D13078D9
:103A80004FF4806540074FF4A0674FF4C0684FF4CF
:103A9000E06914D5F06860B1A8420AD0B84208D0F5
:103AA000404506D0484504D04FF4677119A002F094
:103AB00036FFA068F16820F4E0600843A060307829
:103AC000000715D5306960B1A8420AD0B84208D0C5
:103AD000404506D0484504D040F2A3310DA002F085
:103AE0001EFFA068316920F4605040EAC100A06068
:103AF00000F060F8A1681A4AC1F30311515C01F0AB
:103B00001F01C8401749086017480068BDE8F04722
:103B1000FFF77CBA2E2E2F447269766572732F538D
:103B2000544D3332473478785F48414C5F44726972
:103B30007665722F5372632F73746D3332673478E6
:103B4000785F68616C5F7263632E630000200240DF
:103B50000010024000B4C4040024F40040787D0149
:103B6000AA6900080C000020000000200548064952
:103B700000688968054AC1F30221515C01F01F0108
:103B8000C84070470C00002000100240BA690008CD
:103B90000548064900688968054AC1F3C221515C9D
:103BA00001F01F01C84070470C00002000100240C7
:103BB000BA690008184910B58868C0F3810217482F
:103BC000012A0BD08A68164BC2F38102022A06D062
:103BD0008A68C2F38102032A03D0002010BD184670
:103BE00010BDCA6802F00304CA68C2F30312521C73
:103BF000032C02D0B0FBF2F001E0B3FBF2F0CA6894
:103C0000C968C2F306225043C1F34161491C49000F
:103C1000B0FBF1F010BD0000001002400024F400E1
:103C200040787D012DE9F84304007DD0FE4D2068E9
:103C300070B1C1070FD1810765D4810675D4010722
:103C400074D4400773D440F24511F8A002F067FE27
:103C50002078C00754D060684FF480364FF4A02716
:103C600040B1B04206D0B84204D040F24B11EFA0B0
:103C700002F055FEA868E96800F00C0001F00301AD
:103C80000C2802D0082809D001E0032906D060687A
:103C9000B0420AD1286840F4803013E028688003DD
:103CA0002ED560680028C0D02AE0B842286803D129
:103CB00040F480202860EDE720F4803028602868F8
:103CC00020F480202860606868B1FEF753F806464B
:103CD00005E000BFFEF74EF8801B64287ED82868F8
:103CE0008003F7D50CE0FEF745F8064605E000BF77
:103CF000FEF740F8801B6428F0D828688003F7D4CA
:103D00002078800762D5E06838B1B0F5807F04D0B4
:103D10004FF4C071C5A002F002FE20697F2809D9C6
:103D200040F28111C1A003E0AEE04FE051E087E036
:103D300002F0F5FDA868E96800F00C0001F003014D
:103D40000C2802D004280DD001E002290AD0E06836
:103D5000002828682AD040F480702860FEF70AF80E
:103D6000064618E02868400502D5E06800289AD089
:103D70006868217C20F0FE4040EA01606860B94834
:103D80000068FFF743F900287ED11FE0FDF7F2FF3E
:103D9000801B0228A2D828684005F7D56868217CD6
:103DA00020F0FE4040EA016068600FE020F480707F
:103DB0002860FDF7DFFF064605E000BFFDF7DAFFEC
:103DC000801B02288AD828684005F7D4207800078D
:103DD00033D56069F0B1012808D000E0A9E14FF4C3
:103DE000E47192A002F09BFD606998B1D5F894004F
:103DF00040F00100C5F89400FDF7BCFF064604E062
:103E0000FDF7B8FF801B0228C4D8D5F894008007BE
:103E1000F6D512E0D5F8940020F00100C5F8940022
:103E2000FDF7A8FF064604E0FDF7A4FF801B02286B
:103E3000B0D8D5F894008007F6D4207840076FD525
:103E4000A068002640B1012806D0052804D04FF410
:103E5000FA7176A002F063FDA86DC00008D4A86DC9
:103E600040F08050A865A86D012600F080500090B9
:103E70007D480168C90514D40168804641F4807109
:103E80000160FDF777FF00E08DE1074605E000BF28
:103E9000FDF770FFC01B022894D8D8F80000C005B9
:103EA000F6D5A068012815D00528D5F8900016D0C1
:103EB00020F00100C5F89000D5F8900020F0040033
:103EC000C5F89000A06841F28838B8B1FDF752FFFC
:103ED00007460EE0D5F8900040F00100F0E740F012
:103EE0000400C5F89000F5E7FDF744FFC11B41450C
:103EF0008AD8D5F890008007F6D50CE0FDF73AFF98
:103F0000074604E0FDF736FFC11B414590D8D5F8C0
:103F100090008007F6D41EB1A86D20F08050A865EF
:103F20002078800631D5A069E0B1012806D040F2A2
:103F30003B213EA002F0F3FCA06998B1D5F89800AF
:103F400040F00100C5F89800FDF714FF064604E0B4
:103F5000FDF710FF801B02289ED8D5F89800800737
:103F6000F6D512E0D5F8980020F00100C5F89800C9
:103F7000FDF700FF064604E0FDF7FCFE801B02286B
:103F80008AD8D5F898008007F6D4E06900286DD06B
:103F9000012809D0022807D04FF4197123A002F09C
:103FA000BEFCE0690028F2D0A868C0F381000328B5
:103FB000E06979D0022807D0286820F08070286056
:103FC000FDF7D8FE0446B7E0206A40B1022806D0CB
:103FD000032804D040F26E2114A002F0A0FC606A15
:103FE000401E0F2804D940F26F2110A002F097FC68
:103FF000A06A0838772804D94FF41C710BA002F08E
:104000008EFCE06A801E1D2804D940F2712107A0B1
:1040100002F085FC206B02282FD004282DD0062822
:104020002BD0082829D022E0001002402E2E2F4449
:104030007269766572732F53544D333247347878F2
:104040005F48414C5F4472697665722F5372632FEB
:1040500073746D3332673478785F68616C5F726354
:10406000632E630000000020007000409DE040F2DD
:104070007221AFF2480002F052FC606B02280BD0B4
:10408000042809D0062807D0082805D040F273215B
:10409000AFF2680002F043FC286820F080702860CE
:1040A000FDF768FE064606E04EE000BFFDF762FE43
:1040B000801B02283DD828688001F7D4F4E9080164
:1040C0006FF00F0202EB01110843218A52044908E4
:1040D00002EB4151A26841EA02210843217D4FF0E1
:1040E0007E42490802EB41610843217B40EAC160FE
:1040F000E9682F4A11400843E860286840F0807062
:104100002860E86840F08070E860FDF733FE044600
:1041100005E000BFFDF72EFE001B022809D8286825
:104120008001F7D541E000BFFDF724FE001B022807
:1041300002D90320BDE8F88328688001F4D4E86838
:104140001C490840E86030E00128F3D0E868226AA2
:1041500000F00301914226D1616A00F0F0020901EA
:10416000103991421FD1A26A00F4FE41B1EB022F37
:1041700019D194F82C2000F07841B1EBC26F12D124
:10418000218E00F4C00249084905A1F500119142B1
:1041900009D194F8341000F0C06049084906A1F133
:1041A0000071814201D00120C4E70020C2E7000075
:1041B0000C809F01FCFFEEFE2DE9F04104007DD054
:1041C000A249206888420DD0A14988420AD0A1495D
:1041D000884207D0A049884204D040F247119FA0EE
:1041E00002F09DFB60684FF4827630B1B04204D09B
:1041F0004FF4A47199A002F092FBA0684FF480677D
:1042000048B1B84207D0B0F5004F04D040F2491190
:1042100092A002F084FBE0684FF470684FF4E06510
:10422000404526D0B0F5606F23D0B0F5506F20D058
:10423000B0F5406F1DD0B0F5306F1AD0B0F5206FDB
:1042400017D0B0F5106F14D0B0F5006F11D0A842A0
:104250000FD0B0F5C06F0CD0B0F5A06F09D0B84248
:1042600007D0B0F5407F04D04FF4A5717BA002F0D9
:1042700056FBA069B0F5007F08D038B1B0F5802FAB
:1042800004D040F24B1175A002F049FB606B082886
:1042900005D020B14FF4A67170A002F040FBE06998
:1042A000A0B1082812D0102810D018280ED020282D
:1042B0000CD028280AD0302808D000E038E0382870
:1042C00004D040F24D1165A002F029FB206A30B104
:1042D000802804D04FF4A77160A002F020FB606A30
:1042E000002740B3102806D040F24F115BA002F027
:1042F00016FB606AF8B1E06990B1082810D0102868
:104300000ED018280CD020280AD0282808D0302811
:1043100006D0382804D040F2611150A002F0FFFA14
:1043200027616761A76294F85D00002831D035E00D
:104330000120BDE8F081206930B1022804D04FF49B
:10434000A97146A002F0EBFA606930B1012804D0EF
:1043500040F2531141A002F0E2FA6068B04216D177
:10436000E0690028DED00828DCD01028DAD0182830
:10437000D8D02028D6D02828D4D03028D2D0382859
:10438000D0D040F2571135A002F0C9FACAE7E76170
:10439000C8E784F85C70204600F07CF8022084F8BE
:1043A0005D002068016821F040010160E068A842DA
:1043B00003D90021404502D104E04FF48051A842C6
:1043C00000D0A762A088228900F4827002F404421F
:1043D0001043227C02F002021043227D02F001020F
:1043E0001043228B02F400721043227F02F0380245
:1043F000104394F8202002F080021043228D02F432
:104400000052104322681060A069042202EA1040A2
:1044100094F8242001F4805102F01002104394F823
:10442000342002F008021043A28902F470621043A3
:104430000843216848602068C16921F40061C161B6
:104440002766012084F85D00002072E700300140FB
:1044500000380040003C0040003C01402E2E2F441C
:104460007269766572732F53544D333247347878BE
:104470005F48414C5F4472697665722F5372632FB7
:1044800073746D3332673478785F68616C5F737012
:10449000692E630010B586B0044614216846FBF708
:1044A00082FF1249206888421ED11148016E41F4F2
:1044B00080510166016E01F480510591C16C41F09B
:1044C0000101C164C06C694600F001000590A020A4
:1044D000009002200190002002900390052004909B
:1044E0004FF09040FDF7B2FA06B010BD0030014029
:1044F0000010024010B5401EB0F1807F01D30120B2
:1045000010BD4FF0E02460610F21601702F0F7F951
:104510000020A06107202061002010BD2DE9F05F80
:1045200004460068DFF87CA1DFF87CB15F4FDFF85C
:1045300080810E4650451CD0B0F1804F19D05845AF
:1045400017D05C49884214D05B49884211D05B493E
:1045500088420ED05A4988420BD0B84209D05949F6
:10456000884206D0404504D040F68B0156A002F0A8
:10457000D6F93068A8B1102813D0202811D03028DF
:104580000FD040280DD050280BD0602809D07028BB
:1045900007D0B0F1007F04D040F68C014AA002F0B1
:1045A000BEF9B068802805D020B140F68D0146A044
:1045B00002F0B5F994F83C00012870D0012084F88D
:1045C0003C00022084F83D0020684568D0F808903F
:1045D000504503D0B84201D0404537D1706888B308
:1045E000B0F5801F2ED0B0F5001F2BD0B0F5401FC6
:1045F00028D0B0F5800F25D0B0F5A00F22D0B0F5AF
:10460000C00F1FD0B0F5E00F1CD0B0F5000F19D0CF
:10461000B0F5100F16D0B0F5200F13D0B0F5300F55
:1046200010D0B0F5400F0DD0B0F5500F0AD0B0F556
:10463000600F07D0B0F5700F04D040F69F0122A0A4
:1046400002F06DF925F47000756805432D48216866
:1046500005403068284348602068504511D0B0F1CB
:10466000804F0ED058450CD01249884209D01249CB
:10467000884206D0B84204D01249884201D0404551
:1046800004D1B16829F0800211438160012084F8CF
:104690003D00002084F83C00BDE8F09FFFE70220C9
:1046A000FAE70000002C0140000400400034014003
:1046B0000050014000080040000C00400010004085
:1046C00000140040004001402E2E2F447269766590
:1046D00072732F53544D3332473478785F48414CCE
:1046E0005F4472697665722F5372632F73746D33F2
:1046F00032673478785F68616C5F74696D5F657884
:104700002E6300008FFFFFFD10B586B00446142114
:104710006846FBF748FE0D492068884214D10C48D2
:10472000C16C41F00201C164C06C002100F00200C4
:104730000590012000900220CDE90101CDE9031090
:1047400069460448FDF782F906B010BD0004004038
:1047500000100240000400482DE9F05F5FEA020A01
:104760000D4604464FF0000B16D0BAF1040F13D0DB
:10477000BAF1080F10D0BAF10C0F0DD0BAF1100F2A
:104780000AD0BAF1140F07D0BAF13C0F04D041F2AD
:10479000F301A3A002F0C3F82868602810D07028A5
:1047A0000ED0A0F5803140390AD0103908D0103928
:1047B00006D0103904D041F2F40199A002F0AFF80C
:1047C000A86830B1022804D041F2F50194A002F0AB
:1047D000A6F8286930B1042804D041F2F60190A06F
:1047E00002F09DF894F83C0001281BD001209A4962
:1047F0009A4FDFF86CC2DFF86C829B4B9B4E84F8BB
:104800003C004FF08049BAF10C0F75D00DDC984A8E
:10481000BAF1000F16D0BAF1040F42D0BAF1080F66
:1048200009D16AE00220BDE8F09FBAF1100F7DD0F7
:10483000BAF1140F7BD04FF0010B002084F83C003C
:104840005846F0E72068884218D0484516D0B8424C
:1048500014D0604512D0404510D098420ED09042FE
:104860000CD08449884209D08349884206D0B0429E
:1048700004D04FF488516AA002F051F8294620680C
:1048800001F088F92068816941F0080181612068A0
:10489000816921F004018161206881692A691143DD
:1048A00028E02068884212D0484510D0B8420ED087
:1048B00060450CD040450AD0984208D0904206D0BE
:1048C000B04204D041F2111155A002F028F8294657
:1048D000206801F0F5F92068816941F40061816187
:1048E0002068816921F480618161206881692A6979
:1048F00041EA02218161A0E729E02068884210D0C6
:1049000048450ED0B8420CD060450AD0404508D08A
:10491000984206D0B04204D041F2221140A001F0EA
:10492000FEFF2946206801F05BFA01E038E056E01E
:104930002068C16941F00801C1612068C16921F0A6
:104940000401C1612068C1692A69114326E0206819
:10495000884210D048450ED0B8420CD060450AD0ED
:10496000404508D0984206D0B04204D041F23311FD
:104970002BA001F0D4FF2946206801F0C1FA20687D
:10498000C16941F40061C1612068C16921F480619D
:10499000C1612068C1692A6941EA0221C1614CE70D
:1049A0002068884208D0984206D0B04204D041F234
:1049B00044111BA001F0B3FF2946206801F030FB31
:1049C0002068016D41F0080101652068016D21F04A
:1049D000040101652068016D2A6911431EE0206809
:1049E000884208D0984206D0B04204D041F2551116
:1049F0000BA001F094FF2946206801F04DFB2068D0
:104A0000016D41F4006101652068016D21F4806150
:104A100001652068016D2A6941EA022101650CE700
:104A20002E2E2F447269766572732F53544D333294
:104A3000473478785F48414C5F4472697665722FDD
:104A40005372632F73746D3332673478785F6861A3
:104A50006C5F74696D2E6300002C014000040040FF
:104A600000080040000C00400034014000500140AC
:104A700000400140004401400048014070B504007E
:104A800052D04A4920684A4D4FF08046884223D090
:104A9000B04221D0474988421ED0474988421BD0A6
:104AA000A84219D04549884216D04549884213D0BA
:104AB0004449884210D0444988420DD04349884235
:104AC0000AD04349884207D04249884204D040F284
:104AD0003F5141A001F023FFA06860B110280AD027
:104AE000202808D0402806D0602804D04FF4A861C0
:104AF00039A001F014FF206950B1B0F5807F07D0D4
:104B0000B0F5007F04D040F2415133A001F007FF1F
:104B10002068B0420FD0A8420DD00068C004E06801
:104B200004D44FF6FE7102E0012070BD3849401EEA
:104B3000884207D901E0E06820B940F2425126A03E
:104B400001F0EDFEA06930B1802804D040F243515D
:104B500021A001F0E4FE94F83D0028B9002084F87B
:104B60003C00204600F056F8022084F83D00211D4C
:104B7000206800F09DFF012084F8480084F83E0082
:104B800084F83F0084F8400084F8410084F8420033
:104B900084F8430084F8440084F8450084F8460013
:104BA00084F8470084F83D00002070BD002C0140CF
:104BB000000C0040000400400008004000100040CD
:104BC0000014004000340140004001400044014016
:104BD00000480140005001402E2E2F447269766536
:104BE00072732F53544D3332473478785F48414CB9
:104BF0005F4472697665722F5372632F73746D33DD
:104C000032673478785F68616C5F74696D2E630019
:104C1000EEFF0F0008B500680649884208D1064833
:104C2000816D41F002018165806D00F0020000900D
:104C300008BD0000000400400010024010B504460A
:104C400000681B49884213D01A49884210D01A497B
:104C500088420DD0194988420AD01949884207D0A4
:104C60001849884204D040F2362117A001F057FEBF
:104C700094F88400012818D0012084F884002420AE
:104C8000C4F8880020680168026822F0010202600E
:104C900021F0005000216166226810602020C4F8D5
:104CA000880084F88410084610BD022010BD000062
:104CB000003801400044004000480040004C0040E3
:104CC00000500040008000402E2E2F44726976650F
:104CD00072732F53544D3332473478785F48414CC8
:104CE0005F4472697665722F5372632F73746D33EC
:104CF00032673478785F68616C5F756172745F6584
:104D0000782E630070B50D46044600682749884236
:104D100013D02749884210D0264988420DD0264911
:104D200088420AD02549884207D02549884204D0C4
:104D300040F2952123A001F0F2FD9DB1B5F1007F75
:104D400010D0B5F1806F0DD0B5F1C06F0AD0B5F1BC
:104D5000006F07D0B5F1206F04D040F2962119A062
:104D600001F0DDFD94F8840001281DD0012084F8B5
:104D700084002420C4F8880020680668016821F0B7
:104D8000010101602068816821F060612943816030
:104D9000204601F0BFF9206806602020C4F8880092
:104DA000002084F8840070BD022070BD00380140EE
:104DB0000044004000480040004C004000500040CB
:104DC000008000402E2E2F447269766572732F5337
:104DD000544D3332473478785F48414C5F447269B0
:104DE0007665722F5372632F73746D333267347824
:104DF000785F68616C5F756172745F65782E6300BF
:104E000070B50D46044600682749884213D02749EB
:104E1000884210D0264988420DD0264988420AD0BF
:104E20002549884207D02549884204D04FF419719A
:104E300023A001F074FD9DB1B5F1005F10D0B5F174
:104E4000804F0DD0B5F1C04F0AD0B5F1004F07D05B
:104E5000B5F1204F04D040F2652119A001F05FFDAB
:104E600094F8840001281DD0012084F884002420B7
:104E7000C4F8880020680668016821F0010101601B
:104E80002068816821F0604129438160204601F05B
:104E900041F9206806602020C4F88800002084F8CA
:104EA000840070BD022070BD003801400044004005
:104EB00000480040004C004000500040008000408E
:104EC0002E2E2F447269766572732F53544D3332F0
:104ED000473478785F48414C5F4472697665722F39
:104EE0005372632F73746D3332673478785F6861FF
:104EF0006C5F756172745F65782E63002DE9F04117
:104F0000040018D0A0692D4900282D4A2D4B2E4DA4
:104F10002E4E2F4F206811D0884220D090421ED0B4
:104F200098421CD0A8421AD0B04218D0B84216D02D
:104F30004FF49F7110E00120BDE8F08188420ED04F
:104F400090420CD098420AD0A84208D0B04206D075
:104F5000B84204D040F243111EA001F0E0FCD4F8A6
:104F6000880028B9002084F88400204600F050F81A
:104F70002420C4F888002068016821F00101016044
:104F8000A06A10B1204601F0E7F8204601F070FA5F
:104F90000128D1D02068416821F490414160206807
:104FA000816821F02A0181602068016841F00101D7
:104FB00001602046BDE8F04101F0DAB90038014057
:104FC0000044004000480040004C004000500040B9
:104FD000008000402E2E2F447269766572732F5325
:104FE000544D3332473478785F48414C5F4472699E
:104FF0007665722F5372632F73746D333267347812
:10500000785F68616C5F756172742E6300000000E8
:1050100010B59CB00446142115A8FBF7C4F954211F
:105020006846FBF7C0F916492068884226D101205E
:105030000024CDE900046846FEF740F908B1FBF70B
:1050400018FA1048016E41F480410166016E01F4C6
:1050500080411A91C16C41F00201C164C06C15A974
:1050600000F002001A90C02015900220CDE916042D
:105070000720CDE918400448FCF7E8FC1CB010BD3F
:10508000003801400010024000040048072930D2D7
:10509000DFE801F00A10161C222804000068D0F88E
:1050A000841341F0010122E00068D0F8841341F03C
:1050B00002011CE00068D0F8841341F0040116E0FE
:1050C0000068D0F8841341F0080110E00068D0F8BF
:1050D000841341F010010AE00068D0F8841341F015
:1050E000200104E00068D0F8841341F04001C0F8CA
:1050F0008413704770B503681A68D3F8A0534C69DD
:1051000022F020022646144324F0C002202E2BD089
:105110008C69022C28D0032C2BD0042C2ED022F00A
:10512000E00200BF22F40064CA69224322F48064D2
:105130000A6A224322F0C0644A6A224322F00064D1
:105140008A6A2243CC6A22F0404242EA840222F078
:1051500000544A6B096B224325F4803421431A60C2
:105160000068C0F8A01370BD22F0C00242F0200217
:10517000D8E722F0800242F04002D3E722F040025A
:1051800042F08002CEE7F0B50024E426056806EB85
:10519000C11755F807C0B82606EBC116AE59402A0C
:1051A00020D00EDC082A2CD006DC012A1AD0022AD4
:1051B00027D0042A31D115E0102A13D0202A2CD16F
:1051C0001FE0B2F5007F1CD005DC802A19D0B2F5B3
:1051D000807F22D106E0B2F5806F03D0B2F5006F78
:1051E0001BD10EE04FF0BC0E0EEBC11E5A6845F805
:1051F0000E204FF0C00E05680EEBC1119A686A5080
:105200000BE0C42404EBC1145A682A51C825046871
:1052100005EBC1119A6862501024FE21A1401A6862
:105220002CEA010CA240D96842EA0C02A1401143C9
:105230001A69D3F814C01546A2400A430CFA04FCBC
:1052400099694CEA020CA14041EA0C01082D06D1F3
:10525000B20504D4B20102D4DA69A2401143006855
:10526000C151F0BD2DE9F04F8024036804EBC11754
:10527000DC5924F07044DC510568EC59E82303EB59
:10528000C1139E4655F803C0E42303EBC1139B46AC
:1052900055F803A0D5F8A033566924F02004344310
:1052A000202E24D09669022E21D0032E24D0042E45
:1052B00027D024F4D07400BF24F40066D4693443AA
:1052C00024F48066146A344324F0C066546A34437C
:1052D00024F00066946A344324F07046D46A344360
:1052E000566B24F40034B6F1005F0FD010E024F4C4
:1052F000C07444F02004DFE724F4807444F0800498
:10530000DAE724F0800444F48074D5E744F40034F0
:1053100024F04008946B2CF03F0C264644EA080425
:1053200024F48028946D44EA0804DFF8D08004EA6D
:105330000804D2F8508048EA040992F83C40D2F8B8
:10534000408004F03F0444EA0C0424F0004448EA9E
:105350000408546C2AF4807C44EA0C04D2F848C057
:10536000BCF5606F02D0BCF5F05F01D1402E03D1D7
:1053700024F4F0544CEA040424F48046D46C3443FE
:10538000566D062927D2DFE801F003090F151B210E
:10539000126B23F4003343EA42031CE0126B23F444
:1053A000802343EA820316E0126B23F4002343EACE
:1053B000C20310E0126B23F4801343EA02130AE0E5
:1053C000126B23F4001343EA421304E0126B23F43C
:1053D000800343EA821345F80790056845F80E807C
:1053E000056845F80B40D424026804EBC1115650FF
:1053F0000068C0F8A033BDE8F08F0000FFFF06FE94
:10540000FEE700EB8100006E00F0F8407047806816
:10541000C0F3C00070478068C0F3800070478068A8
:10542000C0F380007047042303EAD15310B5184439
:105430004369C1F3045107248C40A3438A401343BA
:10544000436110BD00EB8100016E21F0004111436A
:105450000166704730B58BB0002408940994202170
:1054600068460A94FAF79FFF1C484FF0A0410425B4
:1054700001604FF44031C0E90114C4600461C0E927
:105480000545047744770121016280F82440C46215
:10549000046380F83840C46380F84040FBF75AFD4D
:1054A00008B1FAF7E6FF08A90C480894FAF7E4FFF8
:1054B00008B1FAF7DEFF0A4800900620CDE90104A2
:1054C0007F200594CDE9030569460448FBF7FAF807
:1054D000002801D0FAF7CDFF0BB030BD100000203E
:1054E0000008302E114810B50F49016000214160BD
:1054F0008160C16001744174817410224261012293
:105500000223C0E90623C0E908328262C262C0E910
:105510000C218163C163FCF759F8002803D0BDE872
:105520001040FAF7A6BF10BD006C00407C000020C0
:105530002DE9F04786B014216846FAF734FF454854
:10554000C16C41F00401C164C16C01F0040105911A
:10555000C16C41F02001C164C16C01F020010591D2
:10556000C16C41F04001C164C16C01F04001059182
:10557000C16C41F00101C164C16C01F001010591F0
:10558000C16C41F00201C164C06C4FF0904800F062
:1055900002000590002207214046FCF7B7FBDFF828
:1055A000B8904EF20207002239464846FCF7AEFB9F
:1055B000DFF8A8A0002240215046FCF7A7FB4EF6DA
:1055C00010400325CDE900050024694602945046A9
:1055D000FCF73CFA0095CDE9015469462048FCF7F8
:1055E00035FA4FF48060CDE90005694602941D4804
:1055F000FCF72CFA072000900126CDE901646946EA
:1056000040460394FCF722FA49F25800CDE9000520
:10561000694602944046FCF719FA0097CDE9016407
:10562000694648460394FCF711FA40F62440CDE958
:105630000005694602944846FCF708FA40200090AD
:10564000CDE90164694650460394FCF7FFF906B0C2
:10565000BDE8F08700100240000400480008004840
:10566000001400480018004870B5B8B00024299410
:105670002A942B94602168462C94FAF794FE349473
:1056800035941C212DA83694FAF78DFE242120A8EC
:10569000FAF789FE202118A8FAF785FE814880498B
:1056A000012680E8520004614461FCF791FC08B1D6
:1056B000FAF7DFFE0C217B48FCF762FB08B1FAF732
:1056C000D8FE0A217748FCF77DFD08B1FAF7D1FE34
:1056D00040F2DC50CDE9290405200825CDE92B0551
:1056E00029AA06216F48FCF78FFD08B1FAF7C1FE21
:1056F000009401940294CDE903460594069407941E
:105700004FF000600894CDE909408000CDE90C40DD
:105710000B946A46062163481794FDF71BF808B1FD
:10572000FAF7A7FEC820349034AB012206215D4869
:10573000FCF7F8FD08B1FAF79CFE34AB0222062113
:105740005848FCF7EFFD08B1FAF793FE29AA0021AB
:105750005448FCF759FD08B1FAF78BFE2D943094AC
:105760002DAA00214F483394FDF78AF908B1FAF7C2
:1057700080FE01944FF48076CDE9104600940F949A
:105780000E941294149415946A4600214548169478
:10579000FCF7E0FF08B1FAF76CFE6A4601214148C8
:1057A000FCF7D8FF08B1FAF764FE40F252303490AB
:1057B00034AB012200213B48FCF7B4FD08B1FAF7F5
:1057C00058FE4FF4406020902D20CDE92104CDE912
:1057D000244023942694279420AA00213148289419
:1057E000FCF728FB08B1FAF744FE20AA01212D4856
:1057F000FCF720FB08B1FAF73CFECDE91846CDE9ED
:105800001A541C941D941E9418AB012200212548A3
:105810001F94FCF7B3FE08B1FAF72BFE022528020D
:10582000CDE9185018AB042201211E48FCF7A6FE52
:1058300008B1FAF71EFE1894199418AB0222002141
:1058400018481A94FCF79AFE08B1FAF712FE18AB42
:105850000822012113481895FCF790FE08B1FAF7C9
:1058600008FE29AA01210F48FCF7CEFC08B1FAF77F
:1058700000FE2DAA01210B48FDF702F908B1FAF745
:10588000F8FD012234AB11460648FCF74BFD08B188
:10589000FAF7EFFD0348FCF76BFC38B070BD000071
:1058A00000680140E0000020134810B51149016074
:1058B0001249416000210122C0E9021201614161E7
:1058C0008161C1610162FDF767FA08B1FAF7D1FDA4
:1058D00000210948FDF78CF908B1FAF7CAFD00214B
:1058E0000548FDF7F1F9002803D0BDE81040FAF7AC
:1058F000C0BD10BD00540040DC010020D693D23062
:10590000124810B5104901604FF4827141600021C6
:105910004FF4E062C0E902124FF400720161C0E985
:1059200005121822C0E9072107224162C0E90A12C4
:10593000016308214163FEF73FFC002803D0BDE866
:105940001040FAF796BD10BD003001403002002033
:1059500010B58AB00024079408941C216846099465
:10596000FAF721FD15481449C0E900144FF6FF71FC
:10597000C0E9024104618461FFF780F808B1FAF7D9
:1059800078FD079407A90D480994FEF7C7FD08B1F3
:10599000FAF76FFD6020CDE9000402940822694601
:1059A00006480494FEF7D8FE08B1FAF762FD0348F2
:1059B000FEF7AAFE0AB010BD0004004094020020C9
:1059C000184810B5164901604FF4E13141600021DB
:1059D00081600C22C160C0E904128161C161016271
:1059E00041628162FFF78AFA08B1FAF742FD0021AD
:1059F0000C48FFF705FA08B1FAF73BFD002109480A
:105A0000FFF780F908B1FAF734FD0648FFF716F9F9
:105A1000002803D0BDE81040FAF72BBD10BD0000F0
:105A200000380140E0020020FEE7FEE770477047C3
:105A3000FDF7D4BA00B593B038216846FAF7B3FC45
:105A400014210EA8FAF7AFFC4FF40070FDF7A8FB85
:105A50000220C1010391402104910421CDE90801F4
:105A600000904B21CDE90A1007900C900D906846EC
:105A7000FEF7D8F808B172B6FEE70F200E900320AB
:105A80000F90002010901190129004210EA8FDF7A5
:105A9000EBFE002801D072B6FEE713B000BD000097
:105AA0000248016841F470010160704788ED00E030
:105AB0002DE9F04F02682E4B2E4E2F4FDFF8BCC061
:105AC0002F4C304D4FF0804B98420BD0584509D0A9
:105AD000B04207D0B84205D0604503D0A04201D003
