:020000040800F2
:10000000180B002091020008937200080167000895
:1000100091720008F91300084188000800000000F0
:1000200000000000000000000000000075790008DA
:10003000FB130008000000009572000877790008A3
:10004000AB020008AB020008AB020008AB020008DC
:10005000AB020008AB020008AB020008AB020008CC
:10006000AB020008AB020008AB020008AB020008BC
:10007000AB020008AB020008AB020008AB020008AC
:10008000AB020008AB020008AB020008AB0200089C
:10009000AB020008AB020008AB020008AB0200088C
:1000A000AB020008AB020008AB020008AB0200087C
:1000B000AB020008AB020008AB020008AB0200086C
:1000C000AB020008AB020008AB020008AB0200085C
:1000D000AB020008AB020008AB020008AB0200084C
:1000E000AB020008AB020008AB020008AB0200083C
:1000F000AB020008AB020008AB020008AB0200082C
:10010000AB020008AB020008AB020008AB0200081B
:10011000AB020008AB020008AB020008AB0200080B
:10012000AB020008AB020008AB020008AB020008FB
:10013000AB020008AB020008AB020008AB020008EB
:10014000AB020008AB020008AB020008AB020008DB
:10015000AB020008AB020008AB020008AB020008CB
:10016000AB020008AB020008AB020008AB020008BB
:10017000AB020008AB020008AB020008AB020008AB
:10018000AB020008AB020008AB020008AB0200089B
:10019000AB02000800000000AB020008AB02000840
:1001A000AB020008AB020008AB020008AB0200087B
:1001B000AB020008AB020008AB020008AB0200086B
:1001C000AB020008AB020008AB020008AB0200085B
:1001D000AB020008AB02000800F002F800F049F89A
:1001E0000AA090E8000C82448344AAF10107DA4592
:1001F00001D100F03EF8AFF2090EBAE80F0013F09B
:10020000010F18BFFB1A43F00103184724B7000081
:1002100044B70000103A24BF78C878C1FAD8520712
:1002200024BF30C830C144BF04680C607047000070
:100230000023002400250026103A28BF78C1FBD8EF
:10024000520728BF30C148BF0B607047662908F0CD
:100250002C86002070471FB508F01DFE00F0A0FBA3
:1002600004000020002108F05FFCE0601FBD10B515
:1002700010BD00F091FC1146FFF7EDFF08F012FBF6
:1002800000F0AFFC03B4FFF7F2FF03BC00F0F2FC98
:100290000948804709480047FEE7FEE7FEE7FEE71A
:1002A000FEE7FEE7FEE7FEE7FEE7FEE70448054956
:1002B000054A064B70470000E5790008D90100089F
:1002C00018050020180B0020180700201807002030
:1002D00053EA020C00F069802DE9F04B4FF0000664
:1002E000002B1FBFB3FA83F503FA05F424FA05F6D1
:1002F0005E4012BF1643B2FA82F502FA05F4C5F168
:1003000020051EBF22FA05FC44EA0C04203556EAFB
:10031000044C4FEA144418BF641C4FF000084FF01F
:100320000009904271EB030C39D3002919BFB1FACF
:1003300081F701FA07F6B0FA80F700FA07F6C7F17D
:1003400020071EBF20FA07FC46EA0C062037B6FB42
:10035000F4FCA7EB0507103F07F01F0BCBF12006BD
:100360000CFA0BFB2CFA06F644BFB3460026202FEE
:10037000A4BF5E464FF0000B5BEA060C08BF4FF0CF
:10038000010B19EB0B09ABFB027C48EB0608C01B09
:1003900006FB02CC0BFB03CC71EB0C01C1E70B4657
:1003A000024641464846BDE8F08B13B54FF00000C9
:1003B0004FF00001AFF30080BDE81C407047000023
:1003C0000FB41CB5074B06AA7B44694600900598FC
:1003D00000F0CDFA0020694600F0DCFA1CBC5DF8A4
:1003E00014FB0000C90500002DE9F0474FF0000A9A
:1003F00089460446C0F820A02046E16888470028C6
:1004000076D0252806D0D4E901219047206A401CE7
:100410002062F1E7E168204600258847C4F81CA067
:1004200006460027C4F818A02A2E09D0304608F046
:1004300030FA38B304EB8708303EC8F8186019E08A
:1004400059F8041B204604EB87029161E168884754
:10045000012F064618D1E069002820DA25F0200592
:100460001DE0D8F8180000EB800006EB40003038A3
:10047000C8F818002046E1688847064608F009FADF
:100480000028EED1012F0AD02E2E08D12046E16897
:1004900088477F1C0646022F45F02005C4DBA06973
:1004A000002803DA404245F00105A061E80701D0C9
:1004B00025F01005B6B1A6F14100192802D8203662
:1004C00045F400654A463146204625604D46FFF713
:1004D000BDFE58B1012806D0ED1D25F0070000F142
:1004E000080989E704E005F1040985E730468AE751
:1004F000206ABDE8F0874FF0000200B5134694462D
:100500009646203922BFA0E80C50A0E80C50B1F16B
:100510002001BFF4F7AF090728BFA0E80C5048BF7F
:100520000CC05DF804EB890028BF40F8042B08BF1D
:10053000704748BF20F8022B11F0804F18BF00F819
:10054000012B704770477047704770472DE9FF4F88
:100550000C461E464FF0FF378BB0D2E90001DDF8A4
:1005600060800A908A46C1F30A5505B93D460021CC
:1005700008464FF00000BAF1000F00F4400005DA21
:1005800000EB80004FF4400101EA50004FEA90591F
:10059000B9F1010F00DDB9460A9850EA4A000ED0C1
:1005A00044F61050A5F2FF3545432F14B8F1000F63
:1005B0001ED07542291E1EDDC9F100021CE0B8F1F3
:1005C000010F4FF0000001D0302103E0F24305E0BD
:1005D0002154401CB042FBDB304600220021215454
:1005E0000B99C1F80880C1E900200FB0BDE8F08F79
:1005F000BD1B6D1CDEE74A4600DA694206A800F022
:1006000059FA06AB93E8070003AB83E807005046AE
:100610000A9900F036FB8DE80700A0F500501F385E
:1006200000900398002D09DD42F21F014A4608445C
:1006300003A90390684600F095FD08E0A0F500507E
:100640004A461F3803A90390684600F09FFD8DE8D5
:1006500007000004000C03D04FF0FF30410800E019
:100660001046B8F1000F03D00022009215461EE09C
:10067000751E05D400F098F9303262556D1EF9D51B
:10068000B3460122084302D000227F1C04E02078F8
:10069000302801D100227F1E002A099786D01DE054
:1006A000112D07DA00F080F9303262556D1C50EAE6
:1006B0000102F5D1084302D00098C8B10EE0002134
:1006C000681E05E0235C625C63542254401E491C92
:1006D0008142F7DBAB46A81B401E0990002004F8BE
:1006E0000B000B98099AC0F80880C0E9002B7CE742
:1006F00011264FF0000859E72DE9F04F88460446CF
:10070000D21D22F0070191B0D1E90001CDE90A0123
:1007100008F097F802460B98C00F01D02D2007E093
:100720002068810701D52B2002E0202101EAC000CA
:10073000032A099001D0072A05DB034641462046DB
:1007400000F078F90BE12078800601D5E06900E03F
:100750000620B8F1650F814606D0B8F1660F18D0B3
:10076000B8F1670F70D131E00020B9F1110F00909E
:1007700001DB112301E009F101030AAA01A90CA878
:10078000FFF7E4FEDDE90C70002609F10105834660
:1007900047E001204B4600904FF000470AAA01A90C
:1007A0000CA8FFF7D3FEDDE90DB00C995D460026DD
:1007B00010B909F101000D18B9EB050003D4C0F11F
:1007C000FF3609F10105A5EB09002BE0B9F1010F96
:1007D00001DA4FF001090020B9F1110F00904846ED
:1007E00001DD112300E003460AAA01A90CA8FFF7C6
:1007F000ADFEDDE90C704D460026834620780007EB
:100800000AD4AB4500DA5D4601A8012D04DD41198B
:1008100011F8011C302907D04F4502DA17F1040FF7
:1008200004DA012082460FE06D1EEEE7002F02DCA5
:10083000ED1B3E4403E0781CA84200DD7D1CB81B84
:1008400000F1010A4FF000472078000703D4AA45C1
:1008500001DB4FF0FF3A0021B7F1004F0DF14308E3
:100860008DF8431024D002202B23002F01DA7F4281
:100870002D230A21021EA0F1010000DC5FB197FBCD
:10088000F1FC97FBF1F201FB1C7C17460CF1300CDC
:1008900008F801CDEEE7A8F10100037021880905F1
:1008A00001D5452100E06521A0F1010800F8011CF7
:1008B00009980FA9A1EB0807FF1D00B101204119FC
:1008C00001EBEA70A1693844081A401EA061207843
:1008D000C00602D42046AFF30080099828B1D4E9BD
:1008E00001219047206A401C20622078C00622D552
:1008F0002046AFF300801EE0002E04DBB34502DD8E
:1009000001A8805D00E03020D4E901219047206AF1
:10091000401C2062761CAAF101005FEA000A0AD19D
:1009200000F03EF8C0680168405CD4E901219047BE
:10093000206A401C2062281EA5F10105DCDC07E0CE
:10094000D4E9012118F8010B9047206A401C20626D
:10095000381EA7F10107F3DC2046AFF30080032027
:1009600011B043E601694A1C02610878704700B57E
:100970008FB0CDE901310021059105497944CDE9D8
:10098000031011466846FFF72FFD0FB000BD0000B1
:10099000E5FFFFFF0A6802F8010B0A6070470000DC
:1009A00000487047D404002030B5B0F10A024FEA85
:1009B000900E71F100034EEA817EB0EB0E0061EB08
:1009C00091014FEA101E4EEA017E10EB0E0041EB42
:1009D00011114FEA102E4EEA016E10EB0E0041EBA2
:1009E00011214FEA104E4EEA014E10EB0E0041EB82
:1009F0001141401841F100014FEAD00040EA417036
:100A00004FEAD10110EB80054FEA810444EA90746B
:100A100044EB01046D1944EB0404521BA3414FF055
:100A2000000348BF0A3200D530BD401C41F100012F
:100A300030BD00002DE9F0411F4604460326016841
:100A4000072A01F4006004DB08B116A505E016A52D
:100A500003E008B115A500E015A521F01000206005
:100A6000A069C01EA0610FB1401EA0612046AFF377
:100A700000804FB1D4E9012138469047206A401CDC
:100A80002062C01C206206E0206AFAE7D4E9012156
:100A900015F8010B9047761EF8D22046AFF3008080
:100AA000BDE8F0814E414E006E616E00494E460039
:100AB000696E66002DE9F047814616468AB03348D4
:100AC00078440DC88DE80D0030487844801C03AC94
:100AD0000DC884E80D0041F69B300844372190FB97
:100AE000F1F290FBF1F5A5F1800501FB12041B3C2E
:100AF00002D56442012000E00020DFF890A080468B
:100B00000027FA44AAF1BE0A0DE0E00709D03246F8
:100B1000684607EB47010AEB810100F037FB8DE8DF
:100B2000070064107F1C002CEFD1184F7F44AC3FAE
:100B300018E0E80714D007EB04100DF1180A90E84C
:100B40000E008AE80E00C068F04201D198190890A2
:100B5000324606A903A800F019FB03AB83E807009F
:100B60006D10641C002DE4D132466946B8F1000FC7
:100B700003A802D000F0F6FA01E000F007FBC9E993
:100B80000001C9F808200AB0BDE8F08754AE0000A3
:100B900000487047B40400207546FFF7F9FFAE46E1
:100BA00005006946534620F00700854618B020B579
:100BB000FFF77CFBBDE820404FF000064FF0000738
:100BC0004FF000084FF0000B21F00701AC46ACE8F5
:100BD000C009ACE8C009ACE8C009ACE8C0098D4662
:100BE000704710B50446AFF300802046BDE81040C2
:100BF000FFF748BB4FF0013C50F8042B51F8043B81
:100C00009A4221D1A2EB0C03934313EACC1317D1E0
:100C100050F8042B51F8043B9A4215D1A2EB0C0377
:100C2000934313EACC130BD150F8042B51F8043B37
:100C30009A4209D1A2EB0C03934313EACC13DBD005
:100C40004FF00000704700BFD01A01BAB1FA81F12D
:100C500001F0180122FA01F0CB40C1F12001DBB212
:100C6000C0B2C01A2CFA01F3D11A914311EAC31190
:100C7000E6D1704701491820ABBEFEE7260002000E
:100C800070475FEA400C08BF91F0000F4FEA8C23D9
:100C90004FEAC12243EA51514FEA1C5018BF00F5F8
:100CA000F0404FEA300018BF41F000415FEA6C5C51
:100CB00000F02980BCF1FF3F08BF40F08040704742
:100CC000130C06BF12044FF0100C4FF0000C130E63
:100CD00004BF12020CF1080C130F04BF12010CF137
:100CE000040C930F04BF92000CF1020CD30F04BF4D
:100CF00052000CF1010C11464FF00002A0F11F0050
:100D0000A0EB0C00704711F0004F08BF704731F0A6
:100D100000413FF4D5AF0B0C06BF09044FF0100C97
:100D20004FF0000C0B0E04BF09020CF1080C0B0F66
:100D300004BF09010CF1040C8B0F04BF89000CF1F6
:100D4000020CCB0F04BF49000CF1010CCCF12003C5
:100D5000A0EB0C0022FA03F302FA0CF241EA0301C1
:100D600000F10100704720F07F4C80EA030023F07F
:100D70007F47ACEB070303F57C5300F0004003F121
:100D8000FF032DE980494FEA154B09B44FEA14439C
:100D900025EA0B4E24EA03480FF2042606EB13273C
:100DA00049083E785FEA320203FB0667C7F5000791
:100DB00007FB06F64FEA54374FEAD64606F102061D
:100DC00007FB066CCCF1005C4FEA1C472CEA074C91
:100DD00007FB06F40CFB06F504EB15464FEA9616E6
:100DE00034BF00204FF000404FEAD13706FB07FC2C
:100DF0004FEA1C4C0CFB0BF7D21B03FB0CF761EB0F
:100E000007010CFB0EF7B0EB074072EB17420CFB2F
:100E100008F734BFA2EB0742B2EB074261EB174180
:100E20004FEA0C444FEA910706FB07FC4FEA1C4CC3
:100E30000CFB0BF7B0EBC74072EB573203FB0CF720
:100E400034BFA2EBC742B2EBC74261EB57310CFB98
:100E50000EF7B0EBC70072EB57720CFB08F734BF0C
:100E6000A2EBC702B2EBC70261EB5771039F4FEAD7
:100E7000816141EA921104EBCC044FEAD1374FEA89
:100E8000826206FB07FC42EA90124FEA80604FEA5A
:100E90001C4C0CFB0BF7D21B03FB0CF761EB07019F
:100EA0000CFB0EF7B0EB074072EB17420CFB08F798
:100EB00034BFA2EB0742B2EB074261EB17414FEAA6
:100EC0008C554FEA910704EB9C2406FB07FC4FEA84
:100ED0001C4C0CFB0BF7B0EBC74072EB573203FB1B
:100EE0000CF734BFA2EBC742B2EBC74261EB5731FC
:100EF0000CFB0EF7B0EBC70072EB57720CFB08F758
:100F000034BFA2EBC702B2EBC70261EB577115EB1E
:100F10004C254FEA816141EA92114FEA82624FEA21
:100F2000D13742EA901206FB07FC44F100044FEA75
:100F300080604FEA1C4C0CFB0BF7D21B03FB0CF739
:100F400061EB07010CFB0EF7B0EB074072EB1742A9
:100F50000CFB08F734BFA2EB0742B2EB074261EB90
:100F6000174115EB1C154FEA813141EA92414FEAD6
:100F7000823242EA90424FEA80304FEA0C7644F1E6
:100F8000000448EA03434EEA0B484FF0000EB2EB70
:100F9000080C71EB030724BF624639464EEB0E0E78
:100FA0004FF0000B0018524149414BEB0B0BB2EBD9
:100FB000080C71EB03077BF1000B24BF6246394636
:100FC0004EEB0E0E4FF0000B0018524149414BEB17
:100FD0000B0BB2EB080C71EB03077BF1000B24BF8A
:100FE000624639464EEB0E0E51EA020718BF46F034
:100FF000010616EB0E7655F1000254F1000103D5FF
:10100000BDE88901BDE80088BDE88901BDE8004868
:10101000B619524141EB0101A3F1010370478080F1
:101020007F7E7D7C7B7A7978777676757473727142
:1010300071706F6E6E6D6C6C6B6A6A6968686766FA
:1010400066656464636362616160605F5F5E5E5D8C
:101050005D5C5C5B5B5A5A59595858575756565500
:1010600055555454535352525251515050504F4F62
:101070004F4E4E4D4D4D4C4C4C4B4B4B4A4A4A49B2
:1010800049494848484747474746464645454544F5
:101090004444444343434342424242414141002B82
:1010A00026D4770021D01CB54FEA370703B44FF0A0
:1010B00010004FF010014FF000000FBCBDE81040D1
:1010C0000BF1010BBBF1010F08BF5FEA170722BF4D
:1010D00012F1010211F101014FF0004143F100034F
:1010E00000F0004043EA00007047F9D35708DAE700
:1010F00046EA064613F1400F4FEA16461FDD13F18C
:10110000200FDFBF16430A46002120335B42C8D0C0
:10111000C3F1200746EA064602FA07F74FEA1646E9
:1011200046EA0706C3F1200722FA03F201FA07F79D
:1011300021FA03F14FF0000342EA0702B1E746EA61
:10114000020646EA06464FEA164646EA0106BCBFD4
:1011500046EA0646360C4FF000034FF000024FF00F
:1011600000019EE72DE9C048934630B491E838006D
:1011700007C831EA400C48BF34EA430C03D5FFF7F7
:10118000F2FDFFF78CFFF0BCBDE800882DE9C048F8
:10119000934630B491E8380007C810F0804F08BF7C
:1011A00013F0804F03D100F005F8FFF778FFF0BC93
:1011B000BDE8008820F07F4780EA030023F07F4CE1
:1011C00007EB0C03A3F57C5300F00040A3F1FE03F2
:1011D00092F0000F00F0B38095F0000F00F07780E0
:1011E0002DE901494FEA11404FEA144621EA00482F
:1011F00000FB06FC24EA064708FB06F607FB08F896
:1012000000FB07F718EB06484CEB164C4FEA124B65
:1012100018EB07484FEA15464CEB174022EA0B4EF5
:101220000BFB06FC25EA06470EFB06F607FB0EFE47
:101230000BFB07F71EEB064E4CEB164C4FF000066F
:101240001EEB074E4CEB174B18EB0B0840F1000060
:1012500018EB0E0B58EB000840F100008F1A4FF00E
:1012600000013CBFC943661B14BFB5EB040C002151
:101270003CBFC943F61B4FEA17444EEA8E0E27EADD
:1012800004454FEA1C4704FB07622CEA074C05FBA8
:1012900007F70CFB05F604FB0CFC16EB074642EBCC
:1012A000174216EB0C4642EB1C421BEB060658EBB2
:1012B0000202414146EA9E0601D5BDE80189B61900
:1012C000524141EB0101A3F10103BDE801894FEA5D
:1012D00014454FEA114724EA054621EA074C05FB6D
:1012E00007F406FB07F70CFB06F105FB0CFC11EB02
:1012F000074144EB17444FEA124711EB0C4144EB12
:101300001C4422EA074C05FB07F206FB07F70CFB1F
:1013100006F605FB0CFC16EB074642EB174216EBF4
:101320000C4642EB1C456A1854F1000148BF704757
:10133000B619524141EB0101A3F10103704795F049
:10134000000F37D04FEA11424FEA144721EA024614
:1013500024EA074C02FB07F106FB07F70CFB06F437
:1013600002FB0CFC14EB074441EB17414FEA154715
:1013700014EB0C4441EB1C4125EA074C02FB07F53A
:1013800006FB07F70CFB06F602FB0CFC16EB074608
:1013900045EB174516EB0C4645EB1C42121951F173
:1013A000000148BF7047B619524141EB0101A3F15A
:1013B000010370474FEA14454FEA114724EA0546F6
:1013C00021EA074C05FB07F106FB07F70CFB06F2C9
:1013D0004FF0000605FB0CFC12EB074241EB1741F6
:1013E00012EB0C4251EB1C4148BF7047921841EB85
:1013F0000101A3F101037047FEE7704772B6FEE7F3
:101400002DE9F04F044600684FF0A0477A4E9BB09C
:101410000D464FF0000BB84206D0B04204D040F663
:101420004C0176A007F03CFA286800284AD0012831
:1014300013D0022811D003280FD005280DD006287C
:101440000BD0072809D0092807D040F64D016BA022
:1014500007F026FA2868002834D0686850B1B0F543
:10146000004F07D0B0F5404F04D04FF4056163A0A2
:1014700007F016FAA86828B3B0F5807F22D0B0F53F
:10148000007F1FD0B0F5407F1CD0B0F5806F19D021
:10149000B0F5A06F16D0B0F5C06F13D0B0F5E06F07
:1014A00010D0B0F5006F0DD0B0F5106F0AD0B0F5C8
:1014B000206F07D0B0F5306F04D040F651014FA037
:1014C00007F0EEF994F85800012812D0012084F8B2
:1014D00058004FF00009CDF85C90CDF86090B84608
:1014E0002068DFF854A1554F404506D13846009793
:1014F00008E002201BB0BDE8F08FB04216D1504684
:10150000CDF800A005F0C0FB0090206805F0BCFB02
:1015100001460098014311D0E06D40F02000E065E5
:101520004FF0010B84F858905846E3E7E16D41F025
:101530002001E16584F858900120DBE720684146EE
:10154000884201D0B84201D13D4800E03D48D5F87D
:1015500000C03D4B40F61F72BCF1000F2CD0D0F8FC
:1015600008C094F838802CF4604C4CEA483CD5F81C
:1015700004804CEA080CC0F808C0D4F800C08C45C0
:1015800001D0BC4504D18968BB6801F0010108E0C5
:10159000B168DAF8086001F0010106F001069B6805
:1015A000314303F001031943BCD1AB6829681943E7
:1015B0008368934319431CE0856825F46045856082
:1015C00025688D4201D0BD4204D18968BB6801F015
:1015D000010108E0B168DAF8085001F0010105F0F6
:1015E00001059B68294303F0010319439AD18168DF
:1015F0009143816096E70000000400502E2E2F4496
:101600007269766572732F53544D3332473478784C
:101610005F48414C5F4472697665722F5372632F45
:1016200073746D3332673478785F68616C5F6164BE
:10163000635F65782E6300000005005000010050D4
:101640000003005000070050000600502DE9F04F45
:1016500085B004460020039000902068DFF8F8A3CE
:10166000DFF8F8B3FE4E0D46B0F1A04F0DD0B042FA
:101670000BD0FC49884208D0504506D0584504D0CC
:1016800040F6D221F8A007F00BF9686806282DD0A3
:101690000C282BD0122829D0182827D0B0F5807F0D
:1016A00024D0B0F5837F21D0B0F5867F1ED0B0F571
:1016B000897F1BD0B0F58C7F18D0B0F5007F15D096
:1016C000A0F50071063911D0B0F5037F0ED00C39AA
:1016D0000CD0B0F5067F09D0B0F5407F06D0F439C4
:1016E00004D040F6D321E0A007F0DAF8A868A8B14A
:1016F000B0F1004F12D0012810D002280ED00328DC
:101700000CD004280AD0052808D0062806D00728BF
:1017100004D040F6D421D4A007F0C2F8E868E04F26
:101720007F2806D0B84204D040F6D521CEA007F0DD
:10173000B7F8286904280BD050B1012808D0022836
:1017400006D0032804D040F6D621C7A007F0A8F899
:101750002068C06800F01800810840F6FF70C8409B
:101760006969884204D240F6D721BFA007F098F8F3
:101770002869042808D094F84000012804D140F6D4
:10178000DB21B9A007F08CF8DFF81483E868DFF8F4
:1017900014C34045DFF810E3DFF81093C44FC54988
:1017A000C54A28684FEA4C0379D0012878D06045B3
:1017B00076D0984274D0704572D0C04B98426FD0AA
:1017C000BF4B98426CD0BF4B984269D0BE4B9842F9
:1017D00066D0BE4B984263D0BD4B984260D0BD4BA3
:1017E00098425DD0BC4B98425AD02368B3F1A04FC9
:1017F00057D0B34217D1884252D0904250D0DFF830
:10180000DCC260454CD0DFF8D8C2604548D0DFF874
:10181000D4C2604544D0DFF8D0C2604540D0DFF884
:10182000CCC260453CD0DFF83C82DFF8C4C24345FF
:1018300011D1884234D0904232D0DFF8A0824045A6
:101840002ED0DFF8B08240452AD0604528D04845E8
:1018500026D0B84224D0534510D1884220D090429F
:101860001ED09E4988421BD09D49884218D06045B1
:1018700016D0A149884213D0B84211D05B4521D17E
:101880009E4988420CD09E49884209D09D49884291
:1018900006D09349884203D0604501D00EE014E0A1
:1018A0007EE088427CD090427AD08C49884277D0C2
:1018B0009549884274D09549884271D048456FD087
:1018C000B8426DD04FF42E6167E0604568D0704536
:1018D00066D0DFF8E8C1604562D0DFF8E4C160455A
:1018E0005ED0DFF8E0C160455AD0DFF8DCC160456A
:1018F00056D0DFF8D8C1604552D0DFF8D8C1604576
:101900004ED0D4F800C0BCF1A04F62D0B44511D184
:10191000984245D0884243D0904241D0DFF8BC8104
:1019200040453DD0DFF8A881404539D0DFF8B0818F
:10193000404535D0DFF82C81C4450DD198422FD0D9
:1019400088422DD090422BD0DFF89081404527D09F
:10195000DFF88481404523D0D44511D198421FD06F
:1019600088421DD090421BD05C49884218D058490B
:10197000884215D05A49884212D0574988420FD020
:10198000DC4508D1524988420AD05549884207D0DF
:101990005149884204D040F6E42133A006F080FF8C
:1019A00094F8580001281CD04FF0010884F85880A2
:1019B000206805F065F9B0B1E06D40F02000E06509
:1019C00001200390002084F85800039805B0BDE87A
:1019D000F08F9842E4D08842E2D09042E0D03F4974
:1019E000D7E70220F2E7D5E900210C23206803EABB
:1019F00091131844036B01F01F014FF01F0C0CFAF8
:101A000001FCC2F3846223EA0C038A40134303639C
:101A1000206805F035F90090206805F02DF90146A1
:101A20000098084317D1AA6829682068B2F1004FCE
:101A30006ED005F02DF92068416921F00041416127
:101A400020686969C268C2F3C102520091402A69E4
:101A5000042A7DD05DE019E1000500500006005029
:101A600000010050000400502E2E2F44726976654C
:101A700072732F53544D3332473478785F48414C5A
:101A80005F4472697665722F5372632F73746D337E
:101A900032673478785F68616C5F6164632E6300DD
:101AA00000007F400200300440002019000052C7AF
:101AB000000084CB0800900C1000C0108000501D66
:101AC000000180210002B0250004002A0008302E09
:101AD000001060320040C03A0080F03E2000F01458
:101AE00000209036000029C30000524700008CCB34
:101AF00000002143002098B600005AC70800908CCF
:101B00001000C0902000F094002090B6000021C387
:101B10003EE000EB82002B68026EDFF894C303F016
:101B2000F84302EA0C020B431A4342F000410166FB
:101B3000A86940B1B0F1807F05D040F61C31AFF20A
:101B4000D80006F0ADFE287F48B1012807D000E09C
:101B500029E040F61D31AFF2F00006F0A1FE226848
:101B60002869A96902EB8000026E22F080720A43A4
:101B70000266297F20682A69012911D05FF00001DF
:101B800000EB8200026E22F000720A4302667DE0E2
:101B9000002205F07DF82068416941F000414EE7E0
:101BA0004FF00071ECE7002105F060F84003206879
:101BB0004FF0000172D005F059F890FAA0F0B0FA99
:101BC00080F1286842036ED090FAA0F0B0FA80F05D
:101BD000814204D100221146206805F068F80121F5
:101BE000206805F043F8400320684FF001015DD004
:101BF00005F03CF890FAA0F0B0FA80F128684203B2
:101C000059D090FAA0F0B0FA80F0814204D10022BD
:101C10000121206805F04BF80221206805F026F824
:101C2000400320684FF0020148D005F01FF890FAF9
:101C3000A0F0B0FA80F12868420344D090FAA0F0F6
:101C4000B0FA80F0814204D100220221206805F020
:101C50002EF80321206805F009F8400320684FF0B2
:101C6000030133D005F002F890FAA0F0B0FA80F149
:101C7000286842032FD090FAA0F0B0FA80F0814299
:101C800004D100220321206805F011F82068816842
:101C900011F0010F22D0ABE000E004E004F0E6FF19
:101CA000C0F384618DE7C0F3846091E704F0DEFF48
:101CB000C0F38461A2E7C0F38460A6E704F0D6FF16
:101CC000C0F38461B7E7C0F38460BBE704F0CEFFE4
:101CD000C0F38461CCE7C0F38460D0E72A7B296835
:101CE00050F8B03FC1F3120C23EA0C0302F0180CB9
:101CF000704A22FA0CF20A40134303606E48E96806
:101D0000814275D1286841031AD090FAA0F1B1FA46
:101D100081F1491C01F01F0109294FEA403130D8F7
:101D2000002910D090FAA0F1B1FA81F101F101017E
:101D300001F01F0108FA01F208D1C0F3846109E043
:101D4000C0F38461E5E7C0F38461EFE790FAA0F1A6
:101D5000B1FA81F101F1010101F01F0142EA816153
:101D600002D1C0F3846003E090FAA0F0B0FA80F0F2
:101D700000F1010000F01F0000EB400041EA0051BB
:101D800032E000290ED090FAA0F1B1FA81F100BF43
:101D900001F1010101F01F0108FA01F205D1C0F3C0
:101DA000846106E0C0F38461F2E790FAA0F1B1FA31
:101DB00081F101F1010101F01F0142EA816102D1CB
:101DC000C0F3846003E090FAA0F0B0FA80F000F174
:101DD000010000F01F00394A00EB400002EB005008
:101DE00041EA000141F00071AA68206804F050FF48
:101DF00033482B6803423FF4E5AD22684FF0A0481A
:101E00003049314D424501D0B24201D1084600E08F
:101E100028468068DFF8B4C000F0E070634503D066
:101E2000DFF8ACC0634520D15FEA002C1DD44245E9
:101E300005D05A457FF4C6ADB24200D0294640F4E1
:101E400000008A6822F0E07202438A602148224939
:101E50000068B0FBF1F0401C00EB4000800000E0A7
:101E6000401E00900028FBD1ACE54B450ED15FEA47
:101E7000C01C0BD4B24201D15245F5D0424502D02C
:101E8000B24200D0294640F080700AE0BB42EBD15C
:101E90004302E9D4B242E7D0424500D0294640F49B
:101EA00080008A6822F0E07202438A608AE50000BE
:101EB00000F0FF03FFFF070000007F40000020FE4E
:101EC000000008800003005000070050000021C3FC
:101ED0001000C0900C000020400D03002DE9F84FC9
:101EE0004FF00006040000967ED02068DFF8E893EB
:101EF000DFF8E8A3DFF8E8B3FA4DB0F1A04F0CD05B
:101F0000A8420AD0484508D0504506D0584504D0CC
:101F100040F29B11F4A006F0C3FC6068B0F5803F6E
:101F20002CD0B0F5003F29D0B0F5403F26D028B3E3
:101F3000B0F5802F22D0B0F5002F1FD0B0F5402F84
:101F40001CD0B0F5801F19D0B0F5A01F16D0B0F589
:101F5000C01F13D0B0F5E01F10D0B0F5001F0DD09A
:101F6000B0F5101F0AD0B0F5201F07D0B0F5301F14
:101F700004D04FF4CE71DCA006F092FCA06850B102
:101F8000082808D0102806D0182804D040F29D1147
:101F9000D5A006F085FCE06838B1B0F5004F04D05C
:101FA0004FF4CF71D0A006F07BFC206944F2090108
:101FB000884204D940F29F11CBA006F071FC606901
:101FC00030B1012804D04FF4D071C7A006F068FCEE
:101FD000607F30B1012804D040F2A111C2A006F008
:101FE0005FFC4FF4806700E0EEE0206B60B1B84228
:101FF0000AD0B0F5006F07D0B0F5406F04D04FF4B1
:10200000D171B9A006F04CFCE06AB0F5A46F7DD0A8
:10201000B0F5A86F7AD0B0F5886F7DD0B0F5AC6F11
:102020007AD0B0F5906F77D0B0F5B06F74D0B0F5CE
:10203000B46F71D0B0F5F86F6ED0B0F59C6F6BD007
:10204000B0F5A06F68D0B0F5B86F65D0B0F5C06FCF
:1020500062D0B0F5C46F5FD0B0F5C86F5CD0B0F59A
:10206000D46F59D0B0F5D86F56D0B0F5DC6F53D0DF
:10207000B0F5E06F50D0B0F5E46F4DD0B0F5E86F3B
:102080004AD0B0F5EC6F47D0B0F5F06F44D0B0F562
:10209000F46F41D021684FF484624FF48C6E4FF49A
:1020A000BC634FF4986CB1F1A04F01D0A94212D19A
:1020B000B84231D090422FD070452DD098422BD0CD
:1020C000B0F5946F28D0B0F5CC6F25D0B0F5D06FB7
:1020D00022D0604520D0494503D0514501D0594513
:1020E00012D1984218D0904216D0B84214D0604510
:1020F00012D0704510D0B0F5CC6F0DD0B0F5D06FC8
:102100000AD0B0F5946F07D000B100E004E040F2CF
:10211000A31175A006F0C4FB606B50B1B0F1806FE5
:1021200007D0B0F1006F04D04FF4D2716EA006F06A
:10213000B7FB94F8380030B1012804D040F2A51163
:1021400069A006F0ADFBA069042806D0082804D0D9
:102150004FF4D37164A006F0A3FBE06B38B1B0F587
:10216000805F04D040F2A7115FA006F099FB207FAA
:1021700030B1012804D04FF4D4715BA006F090FB7D
:1021800094F8400030B1012804D040F2A91156A0C3
:1021900006F086FB606918B3206A401E0F2804D938
:1021A00040F2AD1150A006F07BFB94F8240018B368
:1021B00001280CD04FF4D7714BA006F071FB94F8B6
:1021C0002400012803D017E00120BDE8F88FA06AA1
:1021D000401E072808D94FF4D97143A006F060FBD0
:1021E00094F82400012807D1607F012804D140F22F
:1021F000B7113DA006F054FBE06D30B9204600F069
:102200006DF90020206684F8580020688168C1F3C9
:10221000407119B18168424A11408160206881682B
:10222000C1F3007189B981683E4A114041F0805183
:1022300081603D483D490068B0FBF1F04000801CE2
:1022400000E0401E00900028FBD120688168C1F3A7
:10225000007141B9E16D41F01001E165216E41F07D
:1022600001012166012604F00BFD0746E06D00F038
:102270001001E06D394305D040F01000E065012603
:102280003046A2E720F4807040F00200E06520684C
:10229000816811F0010F54D14FF0A042904201D05B
:1022A000A84204D19168AB6801F001010AE0D9F8B5
:1022B0000810DAF8083001F0010103F001031943B6
:1022C000DBF8083003F0010319433AD1904201D002
:1022D000A8422FD116482EE00004005000050050FF
:1022E00000060050000100502E2E2F4472697665C2
:1022F00072732F53544D3332473478785F48414CD2
:102300005F4472697665722F5372632F73746D33F5
:1023100032673478785F68616C5F6164632E630054
:10232000C0FFFF5FC0FFFF7F0C000020400D0300D7
:102330000003005066486168826822F47C120A43F8
:102340008260E168E06B627F0843A16841EA423144
:10235000084394F8241040EA0140012904D1218D5A
:102360005C4A02EB41410843E16A29B101F478710A
:10237000226B014342EA01002268D168564B1940A2
:102380000143D16020680169626B21F04061114313
:102390000161206804F070FC07432ED1207F94F87F
:1023A0003810800340EA41022068C16844F2020309
:1023B00099431143C16020690028206801690AD04F
:1023C00041F480310161206850F8C01F22696FF329
:1023D0000D01114307E021F480310161206850F8BC
:1023E000C01F6FF30D01016094F8400001280CD06C
:1023F0002068016921F001010161606901282068FC
:10240000016B21F00F0158D05AE0606C98B104289C
:1024100011D008280FD00C280DD010280BD014286C
:1024200009D0182807D01C2805D040F27621AFF239
:10243000481006F035FAA06CB0B1202814D040281E
:1024400012D0602810D080280ED0A0280CD0C02830
:102450000AD0E02808D0B0F5807F05D040F277217F
:10246000AFF27C1006F01CFAE06C40B1B0F5007FD2
:1024700005D04FF41E71AFF2901006F011FA206DE6
:10248000012809D0A0F58061013905D040F27921F9
:10249000AFF2AC1006F004FAD4E911010843D4E914
:1024A00013121143084321680A6940F2FC739A43EE
:1024B000104340F0010008619FE7226A521E114359
:1024C0000163E06D20F0020040F00100E065D7E616
:1024D000000700500000FEFF0740F0FF10B59CB061
:1024E0000446142115A8FEF706F854216846FEF7A5
:1024F00002F82068B0F1A04F26D14FF400400090C0
:1025000080031190684601F06BFF08B1FEF776FF7B
:102510000E48C16C41F40051C164C16C01F400511A
:102520001A91C16C41F00201C164C06C15A900F0A0
:1025300002001A904FF4805015900320169000204E
:102540001790034800F058FA1CB010BD001002406C
:102550000004004870B5044600F0E2FB0546601C2C
:1025600002D004484068044400F0DAFB401BA0425B
:10257000FAD370BD000000202DE9F05F04007DD08B
:10258000E84E2068DFF8A083DFF8A0A3B04208D0AF
:10259000404506D0504504D04FF49871E4A006F0B1
:1025A0007FF92068B04224D1606810B3012820D0A0
:1025B00002281ED003281CD004281AD0052818D0C1
:1025C000062816D0072814D0082812D0092810D0C1
:1025D0000A280ED00B280CD00C280AD00D2808D0C1
:1025E0000E2806D00F2804D040F23311D0A006F0F8
:1025F00057F9A0684FF4407548B1B0F5807F06D018
:10260000A84204D040F23511C9A006F049F9E068AB
:1026100060B101280AD0022808D0032806D0042877
:1026200004D04FF49B71C2A006F03AF9207C30B17F
:10263000012804D040F23711BDA006F031F9607CCA
:1026400030B1012804D04FF49C71B9A006F028F9EC
:10265000A07C30B1012804D040F23911B4A006F0BA
:102660001FF96069401EB0F5007F04D34FF49D71DF
:10267000AFA006F015F9A069401E00E05FE07F28DA
:1026800004D940F23B11AAA006F00AF9E069401E05
:10269000FF2804D94FF49E71A5A006F001F9206A25
:1026A000401E7F2804D940F23D11A1A006F0F8F8A1
:1026B000A068AB46584523D1606A401E1F2804D944
:1026C0004FF4A0719AA006F0EBF8A06A401E0F2804
:1026D00004D940F2411196A006F0E2F8E06A401EEB
:1026E0001F2804D94FF4A17191A006F0D9F8206BEE
:1026F000401E0F2804D940F243118DA006F0D0F8F7
:10270000606B1C2804D940F2451189A006F0C8F876
:10271000A06B082804D94FF4A37185A006F0C0F877
:10272000E06B38B1B0F1807F04D040F2471180A057
:1027300006F0B6F894F85C00002518B107E0012017
:10274000BDE8F09F84F85D50204600F015F9206840
:10275000816921F01001816100F0E2FA07464FF033
:10276000030904E000F0DCFAC01B0A2811D8206835
:1027700080690007F6D42068816941F00101816118
:1027800000F0CEFA07460BE000F0CAFAC01B0A2898
:1027900006D9206E40F00100206684F85C90CEE7F8
:1027A00020688069C007EFD02068816941F002018C
:1027B00081612068B04202D16C4960680860207C69
:1027C00001282068816937D041F040018161607C37
:1027D00001282068816932D021F480418161A07C88
:1027E0000128206881692DD041F4805181612068E1
:1027F0008169A26821F44071114381612068816977
:1028000021F0A40181612068016921F010010161BA
:10281000E068012819D010B302281BD02068816914
:1028200041F0800181612068016941F0100101617E
:10283000E06803280ED012E021F04001C6E741F421
:102840008041CBE721F48051D0E72068816941F0D5
:10285000040103E02068816941F020018161207E4C
:10286000E26940066FF0FF0101EB0222A0F1007067
:102870001043226AA38A521E10430A0202EB03434A
:1028800018432368D861A068584510D1D4E90A03D9
:1028900001EB0321401E0843216B131303EB0111CD
:1028A0000843A18C02EB014108432168C8602068FD
:1028B00050F8C01FE26B1143016021682C4841456C
:1028C00000D12C48514501D100F5D460206451F865
:1028D000802FA38E22F4F81242EA03420A6000F12C
:1028E00070016164216851F8802F94F8383022F02B
:1028F000706242EA03620A6000F1B001A164D8315B
:10290000E164D831216518316165D83100E020C01B
:102910008842FCD3A5652566012084F85C00002070
:102920000EE700000064004000680040006C0040BA
:102930002E2E2F447269766572732F53544D3332A5
:10294000473478785F48414C5F4472697665722FEE
:102950005372632F73746D3332673478785F6861B4
:102960006C5F666463616E2E63000000006500406A
:1029700000A4004050A7004010B59CB004461421AC
:1029800015A8FDF7B8FD54216846FDF7B4FD1749B9
:102990002068884227D18014009040030E9068463A
:1029A00001F01EFD08B1FEF729FD1148816D41F0CF
:1029B00000718165816D01F000711A91C16C41F067
:1029C0000201C164C06C15A900F002001A90182021
:1029D0001590022016900020179018900B20199047
:1029E000044800F009F81CB010BD0000006C004065
:1029F00000100240000400482DE9F84F00274FF076
:102A0000904ADFF85482DFF854B20D460446504530
:102A100013D0444511D05C450FD0914884420CD06E
:102A20009048844209D09048844206D08F4884421E
:102A300003D0A9218EA005F033FF28680104090CFA
:102A400001D0000C03D0AA2189A005F029FF6868F5
:102A50004FF0030900281FD00128FCD01128FAD01C
:102A60000228F8D01228F6D0B0F5881FF3D0B0F5C0
:102A7000041FF0D0B0F5441FEDD0B0F5901FEAD0A0
:102A8000B0F5081FE7D0B0F5481FE4D00328E2D026
:102A9000AB2177A005F004FFD6E00120B8400090FC
:102AA00006407CD0287900F00300012801D00228DC
:102AB0001DD1E86848B1012807D0022805D00328B5
:102AC00003D0BB216AA005F0EBFEA168780009FAEB
:102AD00000F29143EA6882400A43A260606800996C
:102AE00088432979C1F30011B94001436160287915
:102AF000C043800712D0A86838B1012805D0022849
:102B000003D0CC215AA005F0CBFEE268780009FA88
:102B100000F18A43A96881401143E160287900F0FF
:102B20000300022829D1544513D0444511D05C45F7
:102B30000FD04B4884420CD04A48844209D04A48BE
:102B4000844206D04948844203D0D92148A005F0E8
:102B5000A7FE28690F2803D9DA2145A005F0A0FEB9
:102B6000F80804EB8000026A7907CB0E0F21994028
:102B70008A4329699940114301622168780009FA62
:102B800000F291432A7902F0030282400A43226054
:102B9000686810F4403F56D04448016E00E052E0AF
:102BA00041F001010166006E27F0030100F0010011
:102BB00000903F4801448868BA07130F0F229A40DB
:102BC0009043544501D1002217E0444501D1012230
:102BD00013E05C4501D102220FE0214A944201D169
:102BE00003220AE01F4A944201D1042205E01E4A52
:102BF000944201D1052200E006229A4002438A60F5
:102C00002C4A10686968B043C90200D5304310608F
:102C1000284A121D10686968B043890200D5304304
:102C200010602449091F08686A68B043920300D500
:102C3000304308601F49083908686A68B043D20306
:102C400000D5304308607F1C2E6836FA07F07FF409
:102C500024AFBDE8F88F00000004004800080048D9
:102C6000000C0048001000480014004800180048FC
:102C70002E2E2F447269766572732F53544D333262
:102C8000473478785F48414C5F4472697665722FAB
:102C90005372632F73746D3332673478785F686171
:102CA0006C5F6770696F2E630000000000100240C7
:102CB000000001400804014070B515460C000646AE
:102CC00004D14FF4CD7107A005F0EAFD45B1012D07
:102CD00004D040F29B1103A005F0E2FDB46170BD89
:102CE000B46270BD2E2E2F447269766572732F53B5
:102CF000544D3332473478785F48414C5F447269B1
:102D00007665722F5372632F73746D333267347824
:102D1000785F68616C5F6770696F2E630000000008
:102D200001488068704700000000002070B504462C
:102D30000D46481C0BD055B1042D08D0082D06D0E7
:102D40000C2D04D04FF4427116A005F0A9FD94F8A3
:102D5000DC00012821D0012084F8DC00022184F865
:102D6000DD10691C2168D1F8CC2318D042F0020292
:102D7000C1F8CC232168D1F8CC2322F00C022A43DD
:102D8000C1F8CC232168D1F8CC2342F00102C1F86C
:102D9000CC2384F8DD00002070BD022070BD22F03D
:102DA0000202EDE72E2E2F447269766572732F535F
:102DB000544D3332473478785F48414C5F447269F0
:102DC0007665722F5372632F73746D333267347864
:102DD000785F68616C5F687274696D2E63000000D3
:102DE00070B514460D0006460ED0012D0CD0022DF4
:102DF0000AD0032D08D0042D06D0052D04D041F2B1
:102E0000CE514EA005F04CFD2068C8B1B0F5806FE2
:102E100016D0B0F5006F13D0B0F5406F10D0B0F5FC
:102E2000805F0DD0B0F5A05F0AD0B0F5C05F07D0CD
:102E3000B0F5E05F04D041F2CF5140A005F030FD85
:102E4000A06838B1B0F5007F04D041F2D0513BA06A
:102E500005F026FDE06838B1B0F5004F04D041F22E
:102E6000D15136A005F01CFD206938B1B0F5804F76
:102E700004D041F2D25131A005F012FDA06938B161
:102E8000B0F1007F04D041F2D3512CA005F008FD31
:102E9000E06938B1B0F1004F04D041F2D45127A01D
:102EA00005F0FEFC206A38B1B0F1804F04D041F249
:102EB000D55122A005F0F4FC96F8DD0002283AD0A6
:102EC00096F8DC00012837D0012206F8DC2F02201A
:102ED000707020886FF07E4300F4E051A088C0F34A
:102EE00008000843218901F400710143208A00F49D
:102EF00080400843A18901F400410143A08A03EA0C
:102F000000400843A16901F000710143206A00F00C
:102F10008043E0690B4300F00040184356F8DC1C86
:102F2000B82303EBC5140B59134D2B4003430B512E
:102F300072700020307070BD022070BD2E2E2F44A4
:102F40007269766572732F53544D333247347878F3
:102F50005F48414C5F4472697665722F5372632FEC
:102F600073746D3332673478785F68616C5F687250
:102F700074696D2E630000000020003CF8B5040069
:102F80007ED04A4E2068B04204D040F2332148A09F
:102F900005F086FC55496068084204D04FF40D7175
:102FA00043A005F07DFC022084F8DD000025C4F874
:102FB000E050C4F8E450C4F8E850C4F8EC50C4F849
:102FC000F050C4F8F450C4F8F850207AC00737D055
:102FD000206968B1B0F5804F0AD0B0F5004F07D036
:102FE000B0F5404F04D04FF41B7131A005F058FCF0
:102FF000606950B1B0F5005F07D0B0F5405F04D014
:1030000040F26D212AA005F04BFC2068B04208D1A7
:103010003748016E41F080610166006E00F080600B
:1030200000902168086820F44042208A00F4404063
:10303000104320F44052A08A00F44050104308602E
:10304000204600F057F8207A800715D5E06850B187
:10305000B0F5007F07D0B0F5407F04D040F2912159
:1030600013A005F01DFC2168086820F44072A089B7
:1030700000F4407010430860012084F8DD0000E097
:1030800012E084F8DC500021C1EBC10004EB8000A9
:10309000491C8561C561056245628562C9B20563E7
:1030A0000629F1D90020F8BD0120F8BD00680140D3
:1030B0002E2E2F447269766572732F53544D33321E
:1030C000473478785F48414C5F4472697665722F67
:1030D0005372632F73746D3332673478785F68612D
:1030E0006C5F687274696D2E6300000080FFFCFFE6
:1030F0000010024008B500680649884208D1064819
:10310000016E41F080610166006E00F08060009009
:1031100008BD0000006801400010024010B586B0F4
:10312000044614216846FDF7E6F90F4920688842F5
:1031300018D10E48C16C41F00101C164C06C6946F0
:1031400000F0010005904FF47060009002200190A3
:1031500000200290032003900D2004904FF0904037
:10316000FFF74AFC06B010BD0068014000100240A5
:1031700070B50D460446FFF7D3FD064607E0681C10
:1031800005D0FFF7CDFD801BA8420DD865B12068A2
:10319000D0F88803C043C003F1D4012084F8DD00D7
:1031A000002084F8DC0070BD072084F8DD000320D7
:1031B00070BD000070B515460C46064606290FD0B6
:1031C00074B1012C0CD0022C0AD0032C08D0042C92
:1031D00006D0052C04D040F296312EA005F060FBFD
:1031E000A86890B1012810D002280ED003280CD076
:1031F00004280AD0052808D0062806D0072804D0BD
:1032000040F2973123A005F04BFBE868082807D06F
:1032100030B1102804D04FF466711EA005F040FBB9
:1032200096F8DD00022822D0022086F8DD00062C68
:103230001ED08020326800EBC411505820F00703E4
:10324000A868184320F01803E868184350509422E7
:10325000316802EBC412286888509822316802EB6A
:10326000C41268688850012086F8DD00002070BD17
:103270003168086820F00702A868104320F018029F
:10328000E8681043086031682868486131686868F8
:103290008861E8E72E2E2F447269766572732F538A
:1032A000544D3332473478785F48414C5F447269FB
:1032B0007665722F5372632F73746D33326734786F
:1032C000785F68616C5F687274696D2E63000000DE
:1032D0002DE9F05F1D4690460E46044606290FD0A4
:1032E00076B1012E0CD0022E0AD0032E08D0042E67
:1032F00006D0052E04D041F2CF615DA005F0D0FAD2
:1033000094F8DD00022828D094F8DC00012823D0AE
:10331000012084F8DC00022084F8DD000720062E5E
:103320001DD09C2101EBC61AB8F1010F44D0A8238F
:10333000802103EBC6134FF4805299464FF4005B93
:1033400001EBC617B8F1020F38D0B8F1040F5ED008
:10335000B8F1080F0FD15EE00220BDE8F09FB8F190
:10336000010F0ED0B8F1020F0FD0B8F1040F10D03A
:10337000B8F1080F11D084F8DD00002084F8DC00DB
:103380000EE021682868C8610AE021682868486260
:1033900006E021682868886202E021682868C8621F
:1033A00094F8DD0007284FF00100D6D084F8DD0046
:1033B000002084F8DC00D0E7296820E0686858B174
:1033C000904209D0584507D0B0F5405F04D041F293
:1033D000177127A005F064FAA422216802EBC61237
:1033E00028688850686800282068C15921F4405135
:1033F0003CD0C1512068C1596A6811432CE0504645
:10340000226802E0A968226848461150C8E721688E
:103410002A68CA50C4E7686858B1904209D0584534
:1034200007D0B0F5405F04D041F2447110A005F020
:1034300037FAAC22216802EBC61228688850686807
:1034400000282068C15921F440410FD0C1512068A3
:10345000C1596A6841EA8201C1516868584501D181
:10346000A968CCE7B0F5405FCCD099E7C15197E7A8
:103470002E2E2F447269766572732F53544D33325A
:10348000473478785F48414C5F4472697665722FA3
:103490005372632F73746D3332673478785F686169
:1034A0006C5F687274696D2E630000002DE9F04155
:1034B0001D4614460E0007460AD0012E0DD0022EDE
:1034C00010D0032E13D0042E16D0052E1BD020E0D2
:1034D000012C23D0022C21D01BE0042C1ED0082C60
:1034E0001CD016E0102C19D0202C17D011E0402C45
:1034F00014D0802C12D00CE0B4F5807F0ED0B4F53F
:10350000007F0BD005E0B4F5806F07D0B4F5006FF5
:1035100004D041F606012DA005F0C2F9286830B1AB
:10352000022804D041F6070128A005F0B9F928695E
:1035300030B1082804D041F6080124A005F0B0F904
:10354000E86830B1042804D041F609011FA005F055
:10355000A7F9686950B1102808D0202806D0302873
:1035600004D041F60A0119A005F09AF9A86930B112
:10357000402804D041F60B0114A005F091F9E86948
:1035800030B1802804D041F60C0110A005F088F974
:1035900097F8DD00022815D097F8DC00012813D039
:1035A0004FF0010887F8DC80022087F8DD002B4609
:1035B00022463146384602F066FF87F8DD8000205B
:1035C00087F8DC00BDE8F0810220FBE72E2E2F44B7
:1035D0007269766572732F53544D3332473478785D
:1035E0005F48414C5F4472697665722F5372632F56
:1035F00073746D3332673478785F68616C5F6872BA
:1036000074696D2E630000002DE9F04714460D46E5
:10361000064606290FD075B1012D0CD0022D0AD017
:10362000032D08D0042D06D0052D04D041F26331BE
:10363000AFA005F035F9606930B1202804D041F21F
:103640006631ABA005F02CF9A06950B1022808D072
:10365000032806D0042804D041F26731A4A005F065
:103660001FF9E06938B1B0F5006F04D041F268315C
:103670009FA005F015F9206A38B1B0F5806F04D02D
:1036800041F269319AA005F00BF9606A68B1B0F1B6
:10369000007F0AD0B0F1806F07D0B0F1C06F04D0C6
:1036A00041F26A3192A005F0FBF8A06A38B1B0F19E
:1036B000006F04D041F26B318DA005F0F1F8206B62
:1036C00038B1B0F5803F04D041F26C3188A005F0EC
:1036D000E7F8606B4FF0005730B1B84204D041F2C8
:1036E0006D3183A005F0DCF896F8DD0002287FD06C
:1036F00096F8DC0001287AD04FF0010886F8DC80CB
:10370000022086F8DD00C106E06A062D72D04FF077
:103710000049C8B1884217D0B84215D0B0F1405F17
:1037200012D0B0F1804F0FD0B0F1A04F0CD0B0F15B
:10373000C04F09D0B0F1E04F06D0484504D041F267
:1037400086316BA005F0ACF8206847F6DF7188433E
:1037500004D041F2873166A005F0A2F87349606891
:10376000084204D041F2883161A005F099F8A06BBD
:1037700030B1402804D041F289315DA005F090F8C5
:10378000E06B800904D041F28A3159A005F088F835
:10379000206C30B1484504D041F28B3154A005F083
:1037A0007FF8606C38B1B0F5807F04D041F28C3185
:1037B0004FA005F075F8A06C002846D0B0F5007F4A
:1037C00043D0B0F5C06F40D0B0F5206F3DD0B0F51C
:1037D000905F3AD0B0F5B05F37D0B0F5D05F34D05D
:1037E000A16B402926D02BE002E000E002E002209D
:1037F000BDE8F08740B1884206D0B84204D041F21B
:103800007C313BA005F04CF82068C00904D041F29F
:103810007D3137A005F044F8606830F4FE0004D034
:1038200041F27E3132A005F03BF82146304602F0ED
:10383000E1FD35E0B0F5606F07D0B0F5F05F04D082
:1038400041F28E312AA005F02BF8E06C38B1B0F5CA
:10385000804F04D041F2903125A005F021F8344981
:10386000206D084204D041F2913121A005F018F8F2
:10387000A06D38B1B0F5802F04D041F293311CA077
:1038800005F00EF8E06D30B1012804D041F294311A
:1038900017A005F005F822462946304602F062FEE0
:1038A000C5EBC50006EB80002168016261684162DA
:1038B000A1688162E168C1622169016329463046DD
:1038C00002F064FD062D0CD0E06A50B9802130680A
:1038D00001EBC5114258E36D22F4007242EA432223
:1038E000425086F8DD80002086F8DC0080E700008A
:1038F0002E2E2F447269766572732F53544D3332D6
:10390000473478785F48414C5F4472697665722F1E
:103910005372632F73746D3332673478785F6861E4
:103920006C5F687274696D2E63000000FFFF208079
:10393000FFFF06FE2DE9F04114460D460646062916
:103940000FD075B1012D0CD0022D0AD0032D08D057
:10395000042D06D0052D04D041F2CB3142A004F055
:103960009FFF206830B1012804D041F2CD313EA044
:1039700004F096FF606838B1B0F5801F04D041F2C2
:10398000CE3139A004F08CFFA06838B1B0F5003F0B
:1039900004D041F2CF3134A004F082FFE06838B1A6
:1039A000B0F5803F04D041F2D0312FA004F078FF71
:1039B000206930B1042804D041F2D1312AA004F0AA
:1039C0006FFF606930B1022804D041F2D23126A0E5
:1039D00004F066FFA06930B1012804D041F2D33170
:1039E00021A004F05DFF96F8DD00022824D096F8AF
:1039F000DC0001281FD0012786F8DC70022086F841
:103A0000DD00EC20326800EBC5115058236820F02F
:103A1000100040EA031020F480136068184320F47B
:103A20008033E068184320F40033A0681843A3698A
:103A3000012B03D00CE00220BDE8F08120F004034C
:103A40002069184320F002036069184340F0010028
:103A500050502946304602F099FC86F8DD7000206F
:103A600086F8DC00E8E700002E2E2F4472697665A8
:103A700072732F53544D3332473478785F48414C3A
:103A80005F4472697665722F5372632F73746D335E
:103A900032673478785F68616C5F687274696D2E24
:103AA0006300000070B50D46044600682049884256
:103AB0000CD02049884209D01F49884206D01F49AE
:103AC000884203D063211EA004F0EAFE35B1B5F5AB
:103AD000805F03D064211AA004F0E2FE94F8410054
:103AE000202823D194F8400001281FD0012084F819
:103AF0004000242084F841002068016821F0010181
:103B000001602068016821F480510160206801682B
:103B1000294301602068016841F001010160202013
:103B200084F84100002084F8400070BD022070BD80
:103B300000540040005800400078004000840040DD
:103B40002E2E2F447269766572732F53544D333283
:103B5000473478785F48414C5F4472697665722FCC
:103B60005372632F73746D3332673478785F686192
:103B70006C5F6932635F65782E63000070B50D4637
:103B8000044600681E4988420CD01E49884209D06C
:103B90001D49884206D01D49884203D091211CA0AE
:103BA00004F07EFE0F2D03D9922119A004F078FEB7
:103BB00094F84100202821D194F8400001281DD01C
:103BC000012084F84000242084F841002068016826
:103BD00021F0010101602068016821F4706141EA6F
:103BE000052101602068016841F001010160202089
:103BF00084F84100002084F8400070BD022070BDB0
:103C0000005400400058004000780040008400400C
:103C10002E2E2F447269766572732F53544D3332B2
:103C2000473478785F48414C5F4472697665722FFB
:103C30005372632F73746D3332673478785F6861C1
:103C40006C5F6932635F65782E63000070B50400B5
:103C500064D05C49206888420DD05B4988420AD014
:103C60005A49884207D05A49884204D04FF4087113
:103C700058A004F015FEA068B0F5806F04D340F2A0
:103C8000212154A004F00CFEE068012806D002288F
:103C900004D040F222214FA004F002FE206938B186
:103CA000B0F5004F04D040F223214AA004F0F8FD03
:103CB0006069FF2804D94FF4097146A004F0F0FDB3
:103CC000A06990B1012810D002280ED003280CD092
:103CD00004280AD0052808D0062806D0072804D0D2
:103CE00040F225213BA004F0DBFDE06938B1B0F5DE
:103CF000002F04D040F2262136A004F0D1FD206A26
:103D000038B1B0F5003F04D040F2272131A004F0D3
:103D1000C7FD94F84100002510B106E0012070BDF8
:103D200084F84050204600F0ABF9242084F841008C
:103D30002068016821F0010101606068216820F0BD
:103D4000706008612068816821F400418160E0684A
:103D50000128A06830D040F4044021688860E06801
:103D60000228206841682AD021F40061416020685F
:103D70004168264A114341602068C16821F400412E
:103D8000C160D4E904010843A16940EA0120216827
:103D9000C860D4E907010843216808602068016809
:103DA00041F0010101606564202084F84100256331
:103DB00084F84250002070BD40F40040CDE741F44B
:103DC0000061D3E7005400400058004000780040F4
:103DD000008400402E2E2F447269766572732F5333
:103DE000544D3332473478785F48414C5F447269B0
:103DF0007665722F5372632F73746D333267347824
:103E0000785F68616C5F6932632E63000080000236
:103E10002DE9F84F044690F84100DDF828A01F4630
:103E200090468B4620287ED194F8400001287AD015
:103E3000012084F84000FEF773FF0646012200903F
:103E40001923D103204602F067FDE0BB222084F84D
:103E50004100102084F8420000256564C4F82480E5
:103E600067856563618D3148FF274FF080784FF09B
:103E70000079FF2903D927853A46009039E0618D02
:103E8000218500903AE05946204602F0CFFC13E02D
:103E900002F080FDB8B92068406A616A0870606A03
:103EA000401C6062208D401E80B22085618D491EBD
:103EB0006185618D01B168B1608D3246002851463F
:103EC0002046E5D100E002E002F0B6FDD0B10120CD
:103ED000BDE8F88F5346002280212046009602F06C
:103EE0001BFD0028F3D1608DFF2804D927853A46B1
:103EF00000954346C7E7608D2085009594F82820FB
:103F00004B46C0E721682020C86121684A68084BF9
:103F10001A404A6084F8410084F8425084F84050C6
:103F20000020D5E7FFE70220D2E700000024008050
:103F300000E800FE2DE9FF4F81B0044690F84100F3
:103F4000DDF838B01F46904620287BD194F8400019
:103F5000012877D0012084F84000FEF7E1FE0646F4
:103F6000012200901923D103204602F0D5FC00283D
:103F700053D1212084F84100102084F8420000250C
:103F80006564C4F8248067856563608D3A49FF27BE
:103F90004FF080794FF0007AFF2802D927854B46F1
:103FA00005E0608D208500045346000C10D0226887
:103FB00098F800009062606A401C6062608D401E4C
:103FC0006085208D401E2085401CC2B2009101E01A
:103FD000002200912046029902F028FC14E000BF64
:103FE00002F055FDC8B9606A216800788862606A8D
:103FF000401C6062608D401E6085208D401E80B236
:104000002085618D01B160B1608D3246002859462E
:104010002046E5D102F010FDE0B1012005B0BDE879
:10402000F08F5B46002280212046009602F074FC4F
:104030000028F2D1608DFF2805D927853A464B46E6
:104040000095C7E716E0608D2085009594F828203C
:104050005346BFE721682020C86121684A68074BA2
:104060001A404A6084F8410084F8425084F8405075
:104070000020D3E70220D1E70020008000E800FE06
:1040800030B59BB00446142115A8FCF734FA54212E
:104090006846FCF730FA17492068884227D140204B
:1040A000002500900795684600F09AF908B1FDF7E1
:1040B000A5F9114CE06C40F00200E064E06C15A939
:1040C00000F002001A904FF4407015901220CDE9D4
:1040D00016050420CDE918500848FEF78DFCA06DA8
:1040E00040F40010A065A06D00F400101A901BB001
:1040F00030BD0000005400400010024000040048A1
:1041000002488168426811448160704700000020C5
:1041100010B50024032000F095F80F2000F008F8F7
:1041200008B1012401E000F025F8204610BD000090
:1041300070B50E4E05460024706898B14FF47A7140
:10414000B1FBF0F00A490968B1FBF0F001F052FB55
:1041500040B9102D06D200222946501E00F022F848
:10416000356000E00124204670BD00000000002002
:104170000C0000200A4882B0016E41F00101016686
:10418000016E01F001010091816D41F08051816566
:10419000806D00F08050009002B000F019B900006E
:1041A0000010024070B515460C460646102A03D38F
:1041B000BE2114A004F074FB102C03D3BF2111A066
:1041C00004F06EFB1E480068C0F30223C3F107022F
:1041D0002046042A00D90422191D072901D20023F0
:1041E00000E0DB1E012404FA02F1491E014099405F
:1041F0009C40641E2C4021433046BDE8704004F0D2
:1042000038BB00002E2E2F447269766572732F53CF
:10421000544D3332473478785F48414C5F4472697B
:104220007665722F5372632F73746D3332673478EF
:10423000785F68616C5F636F727465782E630000ED
:104240000CED00E010B5044607280BD0062C09D071
:10425000052C07D0042C05D0032C03D0A62108A0E0
:1042600004F01EFB154904F0070208684FF6FF032F
:10427000184040EA0220124A1043086010BD0000B6
:104280002E2E2F447269766572732F53544D33323C
:10429000473478785F48414C5F4472697665722F85
:1042A0005372632F73746D3332673478785F68614B
:1042B0006C5F636F727465782E6300000CED00E034
:1042C0000000FA05304910B50968304A3223304CF5
:1042D0005943D0B1B0F5007F0CD0B0F5806F03D05A
:1042E0009D212CA004F0DCFA206820F4C06040F48A
:1042F000806008E02068C0F3412002282AD054F8EA
:10430000800F40F4807020603BE02068C0F34120C3
:10431000022804D054F8800F20F48070F3E7D4F81A
:10432000800020F48070C4F88000206820F4C06011
:1043300040F400702060B1FBF2F0401C00E0401E31
:104340006169490501D50028F9D16069400518D592
:10435000032010BDD4F8800040F48070C4F88000C1
:10436000206820F4C06040F400702060B1FBF2F0DF
:10437000401C00E0401E61694905E6D50028F9D1DE
:10438000E3E7002010BD00000C00002040420F00B9
:10439000007000402E2E2F447269766572732F5381
:1043A000544D3332473478785F48414C5F447269EA
:1043B0007665722F5372632F73746D33326734785E
:1043C000785F68616C5F7077725F65782E6300005C
:1043D0000248816841F4804181607047007000406C
:1043E0002DE9F84F044600680026C1074FF4807A93
:1043F0004FF4007BFE4D29D1810727D4410725D4F6
:10440000010723D4C10621D481061FD441061DD43F
:1044100001061BD4C10519D4810317D4810515D415
:10442000410513D4010511D4C1040FD481040DD466
:1044300041040BD4010409D4C10307D4410305D4BA
:10444000000306D48321EBA004F02AFA20680003BD
:104450006BD5206D002750B1504508D0584506D087
:10446000B0F5407F03D08B21E2A004F019FAA86DCB
:10447000C00008D4A86D40F08050A865A86D012741
:1044800000F080500090DFF8A893D9F8001041F4B4
:104490008071C9F80010FEF743FC804606E000BFBB
:1044A000FEF73EFCA0EB080002282BD8D9F800004C
:1044B000C005F5D5D5F8900010F4407014D0216DEA
:1044C000814211D0D5F89000D5F8901020F44070BA
:1044D00041F48031C5F89010D5F8901021F4803166
:1044E000C5F89010C5F89000C00711D0FEF718FC71
:1044F000804641F2883907E0FEF712FCA0EB080184
:10450000494501D903260BE0D5F890008007F3D583
:10451000D5F89000216D20F440700843C5F8900054
:104520001FB1A86D20F08050A8652078C00713D077
:10453000606848B1012807D0032805D0022803D0BD
:10454000E021ACA004F0ACF9D5F88800616820F057
:1045500003000843C5F888002078800713D5A068B9
:1045600048B1042807D00C2805D0082803D0EA2138
:10457000A0A004F095F9D5F88800A16820F00C00FF
:104580000843C5F888002078400713D5E06848B193
:10459000102807D0302805D0202803D0F62195A078
:1045A00004F07EF9D5F88800E16820F03000084377
:1045B000C5F888002078000714D5206950B140283C
:1045C00008D0C02806D0802804D040F2031189A06A
:1045D00004F066F9D5F88800216920F0C00008438E
:1045E000C5F888002078C00615D5606958B15045D7
:1045F00009D0B0F5407F06D0584504D04FF48871FB
:104600007CA004F04DF9D5F88800616920F4407071
:104610000843C5F888002078800617D5A06968B1DE
:10462000B0F5806F0AD0B0F5406F07D0B0F5006FDD
:1046300004D04FF48E716FA004F032F9D5F88800E1
:10464000A16920F440600843C5F88800207840063E
:1046500014D5E06950B1B0F5805F07D0B0F5005FC8
:1046600004D04FF4937163A004F01AF9D5F88800D0
:10467000E16920F440500843C5F88800207800061E
:1046800014D5206A50B1B0F5804F07D0B0F5004F77
:1046900004D04FF4987157A004F002F9D5F88800BF
:1046A000216A20F440400843C5F888002088C005EE
:1046B00014D5606A50B1B0F5803F07D0B0F5003F27
:1046C00004D040F23B114BA004F0EAF8D5F8880082
:1046D000616A20F440300843C5F8880020688003F0
:1046E00012D5A06A40B1012806D0022804D04FF4A8
:1046F000A47140A004F0D4F8D5F89C00A16A20F081
:1047000003000843C5F89C002088800517D5E06A9F
:1047100068B1B0F5802F0AD0B0F5002F07D0B0F502
:10472000402F04D04FF4AA7132A004F0B9F8D5F8A4
:104730008800E16A20F440200843C5F888002088FA
:104740004FF4801840054FF400191CD5206B58B168
:10475000404509D0484507D0B0F5401F04D040F28D
:104760005F1124A004F09CF8D5F88800216B20F498
:1047700040100843C5F88800206B404503D1E86825
:1047800040F48010E860208800051FD5606B4FF46E
:10479000800760B1B8420AD0B0F5000F07D0B0F57D
:1047A000400F04D04FF4B97112A004F079F8D5F895
:1047B0008800616B20F440000843C5F88800606BF6
:1047C000B84203D1E86840F48010E8602088C00453
:1047D0003FD5A06B4FF0807748B1B84207D0B0F119
:1047E000007F04D040F2851102A004F059F821E0C6
:1047F000001002402E2E2F447269766572732F537B
:10480000544D3332473478785F48414C5F44726985
:104810007665722F5372632F73746D3332673478F9
:10482000785F68616C5F7263635F65782E63000018
:1048300000700040D5F88800A16B20F0407008435C
:10484000C5F88800A06BB84203D1E86840F4801036
:10485000E86020884FF00067800418D5E06B38B11D
:10486000B84205D040F29711AFF2780004F018F882
:10487000D5F88800E16B20F040600843C5F8880057
:10488000E06BB84203D1E86840F48010E86020880B
:10489000400418D5206C38B1B84205D04FF4D3711C
:1048A000AFF2B00003F0FCFFD5F88800216C20F0D7
:1048B00040600843C5F88800206CB84203D1E8681E
:1048C00040F48010E860208800041DD5606C4FF033
:1048D000805750B1B84208D0B0F1005F05D04FF416
:1048E000DA71AFF2F00003F0DBFFD5F88800616CFD
:1048F00020F040500843C5F88800606CB84203D1EE
:10490000E86840F48030E8602068C0031DD5A06CE2
:104910004FF0804750B1B84208D0B0F1004F05D0F9
:1049200040F2C511AFF2341003F0BAFFD5F8880099
:10493000A16C20F040400843C5F88800A06CB84244
:1049400003D1E86840F48030E860206840031AD55D
:10495000E06C404508D038B1484505D04FF4EC71C3
:10496000AFF2701003F09CFFD5F89C00E16C20F4CE
:1049700040100843C5F89C00E06C484503D1E86846
:1049800040F48010E8603046BDE8F88F2DE9F0472C
:104990000D4606004FF000075FD03068010701D0D8
:1049A000000904D040F20B31A3A003F079FF15B346
:1049B000012D20D0022D1ED0032D1CD0042D1AD085
:1049C000052D18D0062D16D0072D14D0082D12D085
:1049D000092D10D00A2D0ED00B2D0CD00C2D0AD085
:1049E0000D2D08D00E2D06D00F2D04D04FF443719D
:1049F00091A003F055FFDFF87882D8F8000000F0AE
:104A00000F00A8420CD2D8F8001021F00F01294362
:104A1000C8F80010D8F8000000F00F00A8421CD120
:104A20003078944CC00741F2883A68D07068DFF85B
:104A3000489201280DD002283BD0032810D040F224
:104A400023317DA003F02CFF7068032808D00228D2
:104A50002FD02068400500282EDB0120BDE8F0871C
:104A600020688001F9D5E06800F00301E068C0F338
:104A70000310401C03291AD0804900BFB1FBF0F09D
:104A8000E168C1F306214843E168C1F34161491C73
:104A90004900B0FBF1F0484519D9A06810F0F00FBB
:104AA0000ED03078800712D5B06848B10FE0744955
:104AB000E4E720688003CEE700F00EF9484506D908
:104AC000A06820F0F00040F08000A0608027A0687F
:104AD000716820F003000843A060FEF721F98146C9
:104AE00006E000BFFEF71CF9A0EB0901514550D8C4
:104AF000A068716800F00C00B0EB810FF2D1306853
:104B000081072BD5400703D5A06840F4E060A06082
:104B10003078000705D5A06820F4605040F4E060CC
:104B2000A060B068A0B1802812D0902810D0A02832
:104B30000ED0B0280CD0C0280AD0D02808D0E02849
:104B400006D0F02804D040F27A313BA003F0A8FE52
:104B5000A068B16820F0F000084304E0802F03D182
:104B6000A06820F0F000A060D8F80010404601F0E6
:104B70000F01A94215D9016821F00F0129430160F5
:104B8000FEF7CEF8074606E0FEF7CAF8C11B51450E
:104B900001D9032062E7D8F8000000F00F00A84216
:104BA000F2D130784FF4806540074FF4A0674FF49E
:104BB000C0684FF4E06914D5F06860B1A8420AD02B
:104BC000B84208D0404506D0484504D04FF467713C
:104BD00019A003F065FEA068F16820F4E0600843C6
:104BE000A0603078000715D5306960B1A8420AD0BE
:104BF000B84208D0404506D0484504D040F2A33121
:104C00000DA003F04DFEA068316920F4605040EA29
:104C1000C100A06000F060F8A1681A4AC1F3031156
:104C2000515C01F01F01C84017490860174800682F
:104C3000BDE8F047FFF77CBA2E2E2F4472697665E7
:104C400072732F53544D3332473478785F48414C58
:104C50005F4472697665722F5372632F73746D337C
:104C600032673478785F68616C5F7263632E6300CB
:104C7000002002400010024000B4C4040024F400EC
:104C800040787D0184B800080C000020000000205E
:104C90000548064900688968054AC1F30221515C4C
:104CA00001F01F01C84070470C00002000100240B6
:104CB00094B800080548064900688968054AC1F3A8
:104CC000C221515C01F01F01C84070470C00002058
:104CD0000010024094B80008184910B58868C0F365
:104CE00081021748012A0BD08A68164BC2F3810251
:104CF000022A06D08A68C2F38102032A03D0002068
:104D000010BD184610BDCA6802F00304CA68C2F399
:104D10000312521C032C02D0B0FBF2F001E0B3FBF3
:104D2000F2F0CA68C968C2F306225043C1F3416178
:104D3000491C4900B0FBF1F010BD0000001002401A
:104D40000024F40040787D012DE9F84304007DD073
:104D5000FE4D206870B1C1070FD1810765D481066F
:104D600075D4010774D4400773D440F24511F8A0FC
:104D700003F096FD2078C00754D060684FF4803669
:104D80004FF4A02740B1B04206D0B84204D040F260
:104D90004B11EFA003F084FDA868E96800F00C0057
:104DA00001F003010C2802D0082809D001E00329F2
:104DB00006D06068B0420AD1286840F4803013E021
:104DC000286880032ED560680028C0D02AE0B84249
:104DD000286803D140F480202860EDE720F480307B
:104DE0002860286820F480202860606868B1FDF79A
:104DF00097FF064605E000BFFDF792FF801B642881
:104E00007ED828688003F7D50CE0FDF789FF0646B9
:104E100005E000BFFDF784FF801B6428F0D82868F8
:104E20008003F7D42078800762D5E06838B1B0F508
:104E3000807F04D04FF4C071C5A003F031FD20691C
:104E40007F2809D940F28111C1A003E0AEE04FE014
:104E500051E087E003F024FDA868E96800F00C0049
:104E600001F003010C2802D004280DD001E0022932
:104E70000AD0E068002828682AD040F480702860B2
:104E8000FDF74EFF064618E02868400502D5E068A9
:104E900000289AD06868217C20F0FE4040EA01603A
:104EA0006860B9480068FFF743F900287ED11FE029
:104EB000FDF736FF801B0228A2D828684005F7D5E9
:104EC0006868217C20F0FE4040EA016068600FE0E5
:104ED00020F480702860FDF723FF064605E000BF40
:104EE000FDF71EFF801B02288AD828684005F7D4EA
:104EF0002078000733D56069F0B1012808D000E0C0
:104F0000A9E14FF4E47192A003F0CAFC606998B182
:104F1000D5F8940040F00100C5F89400FDF700FFBB
:104F2000064604E0FDF7FCFE801B0228C4D8D5F835
:104F300094008007F6D512E0D5F8940020F0010027
:104F4000C5F89400FDF7ECFE064604E0FDF7E8FE28
:104F5000801B0228B0D8D5F894008007F6D42078BA
:104F600040076FD5A068002640B1012806D005286B
:104F700004D04FF4FA7176A003F092FCA86DC00043
:104F800008D4A86D40F08050A865A86D012600F0F7
:104F9000805000907D480168C90514D4016880469E
:104FA00041F480710160FDF7BBFE00E08DE1074632
:104FB00005E000BFFDF7B4FEC01B022894D8D8F866
:104FC0000000C005F6D5A068012815D00528D5F841
:104FD000900016D020F00100C5F89000D5F89000A0
:104FE00020F00400C5F89000A06841F28838B8B1FC
:104FF000FDF796FE07460EE0D5F8900040F0010060
:10500000F0E740F00400C5F89000F5E7FDF788FEF2
:10501000C11B41458AD8D5F890008007F6D50CE031
:10502000FDF77EFE074604E0FDF77AFEC11B414511
:1050300090D8D5F890008007F6D41EB1A86D20F066
:105040008050A8652078800631D5A069E0B101289C
:1050500006D040F23B213EA003F022FCA06998B1AB
:10506000D5F8980040F00100C5F89800FDF758FE0B
:10507000064604E0FDF754FE801B02289ED8D5F8B2
:1050800098008007F6D512E0D5F8980020F00100CE
:10509000C5F89800FDF744FE064604E0FDF740FE23
:1050A000801B02288AD8D5F898008007F6D4E069DA
:1050B00000286DD0012809D0022807D04FF41971BB
:1050C00023A003F0EDFBE0690028F2D0A868C0F34C
:1050D00081000328E06979D0022807D0286820F0F1
:1050E00080702860FDF71CFE0446B7E0206A40B1DE
:1050F000022806D0032804D040F26E2114A003F049
:10510000CFFB606A401E0F2804D940F26F2110A027
:1051100003F0C6FBA06A0838772804D94FF41C7145
:105120000BA003F0BDFBE06A801E1D2804D940F2ED
:10513000712107A003F0B4FB206B02282FD00428B4
:105140002DD006282BD0082829D022E000100240BC
:105150002E2E2F447269766572732F53544D33325D
:10516000473478785F48414C5F4472697665722FA6
:105170005372632F73746D3332673478785F68616C
:105180006C5F7263632E63000000002000700040BB
:105190009DE040F27221AFF2480003F081FB606BAA
:1051A00002280BD0042809D0062807D0082805D0EB
:1051B00040F27321AFF2680003F072FB286820F020
:1051C00080702860FDF7ACFD064606E04EE000BFAB
:1051D000FDF7A6FD801B02283DD828688001F7D482
:1051E000F4E908016FF00F0202EB01110843218A74
:1051F0005204490802EB4151A26841EA02210843E6
:10520000217D4FF07E42490802EB41610843217B3A
:1052100040EAC160E9682F4A11400843E860286805
:1052200040F080702860E86840F08070E860FDF72A
:1052300077FD044605E000BFFDF772FD001B022864
:1052400009D828688001F7D541E000BFFDF768FD67
:10525000001B022802D90320BDE8F88328688001DA
:10526000F4D4E8681C490840E86030E00128F3D035
:10527000E868226A00F00301914226D1616A00F0D9
:10528000F0020901103991421FD1A26A00F4FE41D7
:10529000B1EB022F19D194F82C2000F07841B1EB3A
:1052A000C26F12D1218E00F4C00249084905A1F550
:1052B0000011914209D194F8341000F0C0604908FF
:1052C0004906A1F10071814201D00120C4E700200C
:1052D000C2E700000C809F01FCFFEEFE2DE9F041CB
:1052E00004007DD0A249206888420DD0A14988429F
:1052F0000AD0A149884207D0A049884204D040F290
:1053000047119FA003F0CCFA60684FF4827630B169
:10531000B04204D04FF4A47199A003F0C1FAA06880
:105320004FF4806748B1B84207D0B0F5004F04D0C1
:1053300040F2491192A003F0B3FAE0684FF47068AC
:105340004FF4E065404526D0B0F5606F23D0B0F54E
:10535000506F20D0B0F5406F1DD0B0F5306F1AD02F
:10536000B0F5206F17D0B0F5106F14D0B0F5006F06
:1053700011D0A8420FD0B0F5C06F0CD0B0F5A06F1F
:1053800009D0B84207D0B0F5407F04D04FF4A571E2
:105390007BA003F085FAA069B0F5007F08D038B192
:1053A000B0F5802F04D040F24B1175A003F078FACD
:1053B000606B082805D020B14FF4A67170A003F0EF
:1053C0006FFAE069A0B1082812D0102810D0182870
:1053D0000ED020280CD028280AD0302808D000E091
:1053E00038E0382804D040F24D1165A003F058FA97
:1053F000206A30B1802804D04FF4A77160A003F078
:105400004FFA606A002740B3102806D040F24F11CF
:105410005BA003F045FA606AF8B1E06990B1082832
:1054200010D010280ED018280CD020280AD02828F8
:1054300008D0302806D0382804D040F2611150A09E
:1054400003F02EFA27616761A76294F85D000028D7
:1054500031D035E00120BDE8F081206930B102286B
:1054600004D04FF4A97146A003F01AFA606930B174
:10547000012804D040F2531141A003F011FA6068F2
:10548000B04216D1E0690028DED00828DCD0102810
:10549000DAD01828D8D02028D6D02828D4D0302840
:1054A000D2D03828D0D040F2571135A003F0F8F907
:1054B000CAE7E761C8E784F85C70204600F07CF832
:1054C000022084F85D002068016821F0400101603D
:1054D000E068A84203D90021404502D104E04FF41E
:1054E0008051A84200D0A762A088228900F482706F
:1054F00002F404421043227C02F002021043227D97
:1055000002F001021043228B02F400721043227F4A
:1055100002F03802104394F8202002F08002104379
:10552000228D02F40052104322681060A069042208
:1055300002EA104094F8242001F4805102F0100295
:10554000104394F8342002F008021043A28902F4B8
:10555000706210430843216848602068C16921F4E3
:105560000061C1612766012084F85D00002072E7B8
:105570000030014000380040003C0040003C014049
:105580002E2E2F447269766572732F53544D333229
:10559000473478785F48414C5F4472697665722F72
:1055A0005372632F73746D3332673478785F686138
:1055B0006C5F7370692E630010B586B004461421C9
:1055C0006846FAF798FF1249206888421ED11148B0
:1055D000016E41F480510166016E01F48051059124
:1055E000C16C41F00101C164C06C694600F001006A
:1055F0000590A020009002200190002002900390CE
:10560000052004904FF09040FDF7F6F906B010BD6C
:1056100000300140001002402DE9F84F0446806838
:10562000984616468A464FF4004B30B1584504D090
:1056300040F23D3161A003F033F9FDF771FB814683
:1056400094F85D00012839D1BAF1000F7ED0002E08
:105650007CD094F85C00012830D0012784F85C707D
:10566000032084F85D0000252566C4F838A0A687CD
:10567000E6872564A4F84450A4F846502565E564FF
:10568000A068584509D12068016821F040010160F7
:105690002068016841F48041016020680168490682
:1056A00003D4016841F040010160E068B0F5E06FAB
:1056B00060682AD928B1012E03D022E00220BDE87B
:1056C000F88FA06B21680088C86006E020688168B8
:1056D000890709D5A16B0988C160A06B801CA063F4
:1056E000E08F401EE0870CE0FDF71AFBA0EB0901FC
:1056F000414503D3B8F1FF3F03D04BE0B8F1000FB1
:1057000048D0E08F0028E1D139E008B1012E33D133
:10571000E08F0128A06B03D921680088C8600FE0E2
:1057200021680078087314E0E08725E0206881682C
:10573000890714D5E18F0129A16B08D90988C160B7
:10574000A06B801CA063E08F801EEDE733E009783A
:105750000173A06B401CA063E08F401EE4E7FDF7DF
:10576000DFFAA0EB0901414503D3B8F1FF3F03D0B5
:1057700010E0B8F1000F0DD0E08F0028D6D14A46D6
:105780004146204601F087FD08B120202066A06830
:1057900030B109E084F85D7084F85C5003208EE736
:1057A0002068C1688068009084F85D7004F85C5FD0
:1057B0006068002883D0012081E700002E2E2F444E
:1057C0007269766572732F53544D3332473478784B
:1057D0005F48414C5F4472697665722F5372632F44
:1057E00073746D3332673478785F68616C5F73709F
:1057F000692E630010B5401EB0F1807F01D30120F7
:1058000010BD4FF0E02460610F21601703F031F804
:105810000020A06107202061002010BD2DE9F05F6D
:1058200004460068DFF87CA1DFF87CB15F4FDFF849
:1058300080810E4650451CD0B0F1804F19D058459C
:1058400017D05C49884214D05B49884211D05B492B
:1058500088420ED05A4988420BD0B84209D05949E3
:10586000884206D0404504D040F68B0156A003F094
:1058700017F83068A8B1102813D0202811D030288C
:105880000FD040280DD050280BD0602809D07028A8
:1058900007D0B0F1007F04D040F68C014AA002F09E
:1058A000FFFFB068802805D020B140F68D0146A0EA
:1058B00002F0F6FF94F83C00012870D0012084F833
:1058C0003C00022084F83D0020684568D0F808902C
:1058D000504503D0B84201D0404537D1706888B3F5
:1058E000B0F5801F2ED0B0F5001F2BD0B0F5401FB3
:1058F00028D0B0F5800F25D0B0F5A00F22D0B0F59C
:10590000C00F1FD0B0F5E00F1CD0B0F5000F19D0BC
:10591000B0F5100F16D0B0F5200F13D0B0F5300F42
:1059200010D0B0F5400F0DD0B0F5500F0AD0B0F543
:10593000600F07D0B0F5700F04D040F69F0122A091
:1059400002F0AEFF25F47000756805432D4821680C
:1059500005403068284348602068504511D0B0F1B8
:10596000804F0ED058450CD01249884209D01249B8
:10597000884206D0B84204D01249884201D040453E
:1059800004D1B16829F0800211438160012084F8BC
:105990003D00002084F83C00BDE8F09FFFE70220B6
:1059A000FAE70000002C01400004004000340140F0
:1059B0000050014000080040000C00400010004072
:1059C00000140040004001402E2E2F44726976657D
:1059D00072732F53544D3332473478785F48414CBB
:1059E0005F4472697665722F5372632F73746D33DF
:1059F00032673478785F68616C5F74696D5F657871
:105A00002E6300008FFFFFFD10B586B00446142101
:105A10006846FAF770FD0D492068884214D10C4899
:105A2000C16C41F00201C164C06C002100F00200B1
:105A30000590012000900220CDE90101CDE903107D
:105A400069460448FCF7D8FF06B010BD00040040CA
:105A500000100240000400482DE9F05F5FEA020AEE
:105A60000D4604464FF0000B16D0BAF1040F13D0C8
:105A7000BAF1080F10D0BAF10C0F0DD0BAF1100F17
:105A80000AD0BAF1140F07D0BAF13C0F04D041F29A
:105A9000F301A3A002F004FF2868602810D070284A
:105AA0000ED0A0F5803140390AD0103908D0103915
:105AB00006D0103904D041F2F40199A002F0F0FEB2
:105AC000A86830B1022804D041F2F50194A002F098
:105AD000E7FE286930B1042804D041F2F60190A015
